:020000040000fa
:080000000002040000000000f2
:020000040000fa
:04000800a80200004a
:020000040000fa
:04000c00a802000046
:020000040000fa
:04001000a802000042
:020000040000fa
:04001400a80200003e
:020000040000fa
:04001800a80200003a
:020000040000fa
:04001c00a802000036
:020000040000fa
:04002000a802000032
:020000040000fa
:04002400a80200002e
:020000040000fa
:04002800a80200002a
:020000040000fa
:04002c00a802000026
:020000040000fa
:04003000a802000022
:020000040000fa
:04003400a80200001e
:020000040000fa
:04003800a80200001a
:020000040000fa
:04003c00a802000016
:020000040000fa
:04004000a802000012
:020000040000fa
:04004400a80200000e
:020000040000fa
:04004800a80200000a
:020000040000fa
:04004c00a802000006
:020000040000fa
:040050000e2100007d
:020000040000fa
:04005400bc110000db
:020000040000fa
:04005800a8020000fa
:020000040000fa
:04005c00a8020000f6
:020000040000fa
:04006000a8020000f2
:020000040000fa
:04006400a8020000ee
:020000040000fa
:04006800541b000025
:020000040000fa
:04006c00ac1b0000c9
:020000040000fa
:04007000a8020000e2
:020000040000fa
:04007400a8020000de
:020000040000fa
:04007800a8020000da
:020000040000fa
:04007c00a8020000d6
:020000040000fa
:04008000a8020000d2
:020000040000fa
:04008400a8020000ce
:020000040000fa
:04008800a8020000ca
:020000040000fa
:04008c00a8020000c6
:020000040000fa
:04009000a8020000c2
:020000040000fa
:04009400a8020000be
:020000040000fa
:04009800a8020000ba
:020000040000fa
:04009c00a8020000b6
:020000040000fa
:0400a000a8020000b2
:020000040000fa
:0400a400a8020000ae
:020000040000fa
:0400a800a8020000aa
:020000040000fa
:0400ac001621000019
:020000040000fa
:0400b000a8020000a2
:020000040000fa
:0400b400a80200009e
:020000040000fa
:0400b800a80200009a
:020000040000fa
:0400bc00a802000096
:020000040000fa
:0400c000a802000092
:020000040000fa
:0400c400a80200008e
:020000040000fa
:0400c800a80200008a
:020000040000fa
:0400cc00a802000086
:020000040000fa
:0400d000a802000082
:020000040000fa
:0400d400a80200007e
:020000040000fa
:0400d800a80200007a
:020000040000fa
:0400dc00a802000076
:020000040000fa
:0400e000a802000072
:020000040000fa
:0400e400a80200006e
:020000040000fa
:0400e800a80200006a
:020000040000fa
:0400ec00a802000066
:020000040000fa
:0400f000a802000062
:020000040000fa
:0400f400a80200005e
:020000040000fa
:0400f800a80200005a
:020000040000fa
:0400fc00a802000056
:020000040000fa
:04010000a802000051
:020000040000fa
:04010400a80200004d
:020000040000fa
:04010800a802000049
:020000040000fa
:04010c00a802000045
:020000040000fa
:04011000a802000041
:020000040000fa
:04011400a80200003d
:020000040000fa
:04011800a802000039
:020000040000fa
:04011c00a802000035
:020000040000fa
:04012000a802000031
:020000040000fa
:04012400a80200002d
:020000040000fa
:04012800a802000029
:020000040000fa
:04012c00a802000025
:020000040000fa
:04013000a802000021
:020000040000fa
:04013400a80200001d
:020000040000fa
:04013800a802000019
:020000040000fa
:04013c00a802000015
:020000040000fa
:04014000a802000011
:020000040000fa
:04014400a80200000d
:020000040000fa
:04014800a802000009
:020000040000fa
:04014c00a802000005
:020000040000fa
:04015000a802000001
:020000040000fa
:04015400a8020000fd
:020000040000fa
:04015800a8020000f9
:020000040000fa
:04015c00a8020000f5
:020000040000fa
:04016000a8020000f1
:020000040000fa
:04016400a8020000ed
:020000040000fa
:04020800a802000048
:020000040000fa
:04020c00a802000044
:020000040000fa
:04021000a802000040
:020000040000fa
:04021400a80200003c
:020000040000fa
:04021800a802000038
:020000040000fa
:04021c00a802000034
:020000040000fa
:04022000a802000030
:020000040000fa
:04022400a80200002c
:020000040000fa
:04022800a802000028
:020000040000fa
:04022c00a802000024
:020000040000fa
:04023000a802000020
:020000040000fa
:04023400a80200001c
:020000040000fa
:04023800a802000018
:020000040000fa
:04023c00a802000014
:020000040000fa
:04024000a802000010
:020000040000fa
:04024400a80200000c
:020000040000fa
:04024800a802000008
:020000040000fa
:04024c00a802000004
:020000040000fa
:04025000a802000000
:020000040000fa
:04025400a8020000fc
:020000040000fa
:04025800a8020000f8
:020000040000fa
:04025c00a8020000f4
:020000040000fa
:04026000a8020000f0
:020000040000fa
:04026400a8020000ec
:020000040000fa
:04026800a8020000e8
:020000040000fa
:04026c00a8020000e4
:020000040000fa
:04027000a8020000e0
:020000040000fa
:04027400a8020000dc
:020000040000fa
:04027800a8020000d8
:020000040000fa
:04027c00a8020000d4
:020000040000fa
:04028000a8020000d0
:020000040000fa
:04028400a8020000cc
:020000040000fa
:04028800a8020000c8
:020000040000fa
:04028c00a8020000c4
:020000040000fa
:04029000a8020000c0
:020000040000fa
:04029400a8020000bc
:020000040000fa
:04029800a8020000b8
:020000040000fa
:04029c00a8020000b4
:020000040000fa
:0402a000a8020000b0
:020000040000fa
:0402a400a8020000ac
:020000040000fa
:0402a800a8020000a8
:020000040000fa
:0402ac00a8020000a4
:020000040000fa
:0402b000a8020000a0
:020000040000fa
:0402b400a80200009c
:020000040000fa
:0402b800a802000098
:020000040000fa
:0402bc00a802000094
:020000040000fa
:0402c000a802000090
:020000040000fa
:0402c400a80200008c
:020000040000fa
:0402c800a802000088
:020000040000fa
:0402cc00a802000084
:020000040000fa
:0402d000a802000080
:020000040000fa
:0402d400a80200007c
:020000040000fa
:0402d800a802000078
:020000040000fa
:0402dc00a802000074
:020000040000fa
:0402e000a802000070
:020000040000fa
:0402e400a80200006c
:020000040000fa
:0402e800a802000068
:020000040000fa
:0402ec00a802000064
:020000040000fa
:0402f000a802000060
:020000040000fa
:0402f400a80200005c
:020000040000fa
:0402f800a802000058
:020000040000fa
:0402fc00a802000054
:020000040000fa
:04030000a80200004f
:020000040000fa
:04030400a80200004b
:020000040000fa
:04030800a802000047
:020000040000fa
:04030c00a802000043
:020000040000fa
:04031000a80200003f
:020000040000fa
:04031400a80200003b
:020000040000fa
:04031800a802000037
:020000040000fa
:04031c00a802000033
:020000040000fa
:04032000a80200002f
:020000040000fa
:04032400a80200002b
:020000040000fa
:04032800a802000027
:020000040000fa
:04032c00a802000023
:020000040000fa
:04033000a80200001f
:020000040000fa
:04033400a80200001b
:020000040000fa
:04033800a802000017
:020000040000fa
:04033c00a802000013
:020000040000fa
:04034000a80200000f
:020000040000fa
:04034400a80200000b
:020000040000fa
:04034800a802000007
:020000040000fa
:04034c00a802000003
:020000040000fa
:04035000a8020000ff
:020000040000fa
:04035400a8020000fb
:020000040000fa
:04035800a8020000f7
:020000040000fa
:04035c00a8020000f3
:020000040000fa
:04036000a8020000ef
:020000040000fa
:04036400a8020000eb
:020000040000fa
:10040000cf8220000e7f24000e0188000000000033
:10041000000020000000e000020032000001200087
:10042000200288000c000700c03a220001002000d2
:1004300011000700000020000000e0000200320070
:100440000000020000000000a422020000000000e2
:100450000040da000000fe004440a900201a2000fd
:100460000000e0000300320000002000a00188002e
:100470004440a80000000600910188008000780038
:100480000000eb0015003700e280400032a0b4000d
:100490009101ba00e280400032a0b4009102ba009b
:1004a000e280400032a0b4000002eb00472bde00e7
:1004b000f507b200602ce10004003a000059eb009f
:1004c0008301e900fdff3e00040037006128e100e0
:1004d000010032000082eb000b00070011c3ba00dc
:1004e0001101ba000604e00003003a000200e00037
:1004f000e5ff3a0000000600f607b200960188000a
:1005000082007800f5ff37003159ba008301e90015
:100510000c0032002159ba008301e90008003200c2
:100520000400e00003003a00e280400032a0b40082
:10053000f5ff370011d9ba008301e900faff3a004c
:100540008100e800e180400032a0b4000000060015
:100550000040da000000fe0003f0a200889fbe0009
:100560008a9fbe008c1f780081000700880033003e
:100570006450e1004f0032006420e100520032007c
:1005800003826c0007003b000905d0000306d00081
:10059000820f54000c065d00020039000200320098
:1005a00089017800030678008582550004003d002b
:1005b0000003fd008103fd008502ea008b854200f7
:1005c000840f720002003b0060001000e080180001
:1005d0006011b8000005eb007a28e1000a0039003c
:1005e00006007800c75ddd00f707b2008780750060
:1005f0002d003700828171000a01780061056000da
:100600008180d1000080d3008502e900f9ff3b0022
:10061000060440008784480002003b006004140088
:10062000e0841c000988a300070032008a81710061
:1006300082817100610164008904d1000884d300c3
:100640008b05e800170037000978a30013003a0073
:100650000b00e000130034008b05e900080444009f
:1006600089844c000a4474000978a3000d003a0004
:100670000b00e000070034008b05e900080444008b
:1006800089844c0001003a000b0020000978a30087
:10069000f7ff32000001eb00020037008281710099
:1006a0000a0178000c0007000cf0a70001f0a00080
:1006b000400037006420e10002003a00838f6c00a4
:1006c000400033000801be000200be0039003700c0
:1006d000f4ff2f004e00370081002000618055009c
:1006e0000b003d000b00200061fe2f000100e10027
:1006f0001d00340082817100610164008904d10011
:100700000884d3000000e800faff3a0071002000de
:100710006100640003007000020060000900320004
:1007200061044400e0844c000988a5000500320003
:100730008b05e8006808e10002003a008904d10056
:100740000884d300f20f20000258e10005003d00ac
:10075000c75ddd00f907b2008980750008007800e8
:10076000000006000bf827008b0078000000050051
:100770000004be00410007000003be000405be00e7
:100780000200be003d000700844f75000000060017
:100790000200be006450e100050036006420e10064
:1007a000020036000968a30001003a000800be00fc
:1007b0000160a0004f0678004f05be004f04be0048
:1007c00000000600f0ff2f00f1ff2700f9ff3700bf
:1007d0006022b800060220000000d0008180d20014
:1007e0000482d2008582d2000000a00002025200e2
:1007f00083825a00030031000202420083824a00d1
:100800000000a1000603e900f3ff3a000000060023
:10081000889fbe008a9fbe00841f7800d4ff070017
:100820004f00780011003300f0ff2f00838f6c0021
:1008300006003b00040565000a00a7000800370019
:1008400009f0a6001000200008003700820f5400b5
:10085000838f5c00030039001000200001003e007f
:100860000000200009f0a7000000ea004f05be00cc
:100870004f04be000000e00000000600c70ade00d2
:10088000f107b200f50fb20008003200e1cf4200dc
:10089000020032000170a00024000500810f7000ea
:1008a000010032000408050044000500810f7000bb
:1008b00002003a00140005008502e9000000400033
:1008c00081c04800fcff3b000170a000240005002f
:020000040000fa
:1008d0005b730000645f0000696e000069740000d3
:1008e000696100006c6900007a6500005d2000000d
:1008f00045720000726f0000722000002d20000081
:10090000496400006c650000207300007461000001
:1009100074650000210a0000005b000073640000a1
:100920005f6900006e69000074690000616c00007e
:10093000697a0000655d00002045000072720000c9
:100940006f720000202d000020540000696d00002f
:10095000656f000075740000210a0000005b000054
:10096000736400005f6900006e6900007469000034
:10097000616c0000697a0000655d000020450000a0
:10098000727200006f720000202d000020520000e3
:1009900065610000642000004f4300005221000008
:1009a0000a0000005b730000645f0000696e0000d5
:1009b00069740000696100006c6900007a650000dc
:1009c0005d20000045720000726f00007220000080
:1009d0002d200000566f00006c740000616700005d
:1009e000652100000a0000005b730000645f0000e6
:1009f000696e000069740000696100006c690000a4
:100a00007a6500005d20000045720000726f0000f2
:100a1000722000002d20000073650000742000008b
:100a2000626c00006f6300006b2000006c650000ca
:100a30006e67000074680000210a0000005b00007f
:100a4000736400005f730000656e0000645f000067
:100a5000636f00006d6d0000616e0000645d00005a
:100a600020540000696d0000656f0000757400007f
:100a700021210000210a0000007300006420000012
:100a800061720000677500006d6500006e74000003
:100a9000733a0000200000000a0a00002d2d00001b
:100aa0002d2d00002d2d000020530000636100005b
:100ab0006e2000006f6600002049000032430000f5
:100ac0002042000075730000202d00002d2d000035
:100ad0002d2d00002d0a0000202000002020000005
:100ae00000200000003a000020000000202000004c
:100af000200000002d2d0000200000000a0a000048
:100b0000000a00000a2d00002d2d00002d2d0000f0
:100b10002d200000447500006d700000206f000063
:100b200066200000493200004320000043680000b6
:100b300069700000202d00002d2d00002d2d0000db
:100b40002d0a0000202000002020000000300000be
:100b50003a200000000000004d6f00006e640000ad
:100b600061790000005400007565000073640000a6
:100b70006179000000570000656400006e650000a8
:100b80007364000061790000005400006875000083
:100b9000727300006461000079000000467200007a
:100ba0006964000061790000005300006174000076
:100bb0007572000064610000790000005375000048
:100bc0006e6400006179000000000000ac85000048
:100bd000b3850000bb850000c5850000ce85000000
:100be000d5850000de8500000a3d00003d3d000087
:100bf0003d3d00003d200000486500006c6c000099
:100c00006f2000003d3d00003d3d00003d3d0000e7
:040c10000a000000d6
:020000040000fa
:100c14000400fa00004f78001107980002c3b300e3
:100c24009e4041001e009000014878001e00900084
:100c34009040780090c3b30080cf50000500360088
:100c44001e00900010407800e74040001e00900015
:100c5400014878000080fa00000006000400fa0051
:100c6400004f78001107980000cdb3009e4040006b
:100c74001e009000014878001e009000104078008b
:100c8400e94f5000050036001e0090001040780027
:100c9400e74050001e009000014878000080fa00f0
:100ca400000006000400fa00000f78001107980005
:100cb4001e0090008040eb00014878001e00900068
:100cc4000000e8008040eb00014878001e0090001e
:100cd4000080e8008040eb00014878001e0090008e
:100ce400630040008040eb00014878001e00900043
:100cf400640040008040eb000148780007003700a2
:100d04001e00900064004000904078008140e8009c
:100d140001487800008f2d001e0f4000f070220063
:100d24009e007800808f5000f5ff3e0007003700da
:100d34001e00900063004000904078008140e8006d
:100d44000148780081c12f001e8f4000703e2000b2
:100d54009e007800808f5000f5ff3e0007003700aa
:100d64001e0090000080e800904078008140e80078
:100d740001487800c1f92f001e8f40003006200082
:100d84009e007800808f5000f5ff3e00070037007a
:100d94001e0090000000e800904078008140e800c8
:100da400014878009e0078006a8f50001e00780089
:100db400e90f5000f6ff3e001e00780080407800e6
:100dc4001e009000014878000080fa000000060030
:100dd4000600fa00008fbe00220798002e00900043
:100de4008040eb00014878002e0090000000e800ed
:100df4008040eb00014878002e0090000080e8005d
:100e04008040eb00014878002e0090006300400011
:100e14008040eb00014878002e0090006400400000
:100e24008040eb00014878002e00900065004000ef
:100e34008040eb00014878002e00900066004000de
:100e44008040eb00014878002e00900067004000cd
:100e54008040eb00014878002e00900068004000bc
:100e64008040eb00014878002e00900069004000ab
:100e74008040eb0001487800090037002e00900004
:100e840069004000904078008140e8000148780003
:100e94000060230051462c001e0f40005e9748005e
:100ea400f09f2c00a1b923001e01be00800f510049
:100eb400818f5900f1ff3e00090037002e00900099
:100ec40068004000904078008140e80001487800c4
:100ed40000f02100a1a02f001e0f40005e974800e3
:100ee400f00f2e00515f20001e01be00800f510044
:100ef400818f5900f1ff3e00090037002e00900059
:100f040067004000904078008140e8000148780084
:100f14000098260071f62f001e0f40005e974800cf
:100f2400f0672900810920001e01be00800f5100d6
:100f3400818f5900f1ff3e00090037002e00900018
:100f440066004000904078008140e8000148780045
:100f540000dc2b0001ff2f001e0f40005e974800ad
:100f6400f0232400f10020001e01be00800f510078
:100f7400818f5900f1ff3e00090037002e009000d8
:100f840065004000904078008140e8000148780006
:100f940000962700e1ff2f001e0f40005e974800d7
:100fa400f0692800110020001e01be00800f5100ce
:100fb400818f5900f1ff3e00090037002e00900098
:100fc40064004000904078008140e80001487800c7
:100fd400008f2d00f1ff2f001e0f40005e97480088
:100fe400f0702200010020001e01be00800f51009d
:100ff400818f5900f1ff3e00090037002e00900058
:1010040063004000904078008140e8000148780087
:1010140082c12f00f3ff2f001e0f41005e9749008d
:10102400703e2000010020001e01be00800f510010
:10103400818f5900f1ff3e00090037002e00900017
:101044000080e800904078008140e8000148780082
:10105400c2f92f00f3ff2f001e0f41005e974900d5
:1010640030062000010020001e01be00800f510048
:10107400818f5900f1ff3e00090037002e009000d7
:101084000000e800904078008140e80001487800c2
:1010940062ff2f00f3ff2f001e0f41005e974900ef
:1010a4001e01be009000200001002000800f5100ae
:1010b400818f5900f1ff3e001e00780080407800c7
:1010c4002e009000014878000080fa00000006001d
:1010d4000800fa00881f7800008fbe0022079800dd
:1010e400330798002e0090008040eb000148780000
:1010f4002e0090000000e8008040eb0001487800da
:101104002e0090000080e8008040eb000148780049
:101114002e009000630040008040eb0001487800fe
:101124002e009000640040008040eb0001487800ed
:101134002e009000650040008040eb0001487800dc
:101144002e009000660040008040eb0001487800cb
:101154002e009000670040008040eb0001487800ba
:101164002e009000680040008040eb0001487800a9
:101174002e009000690040008040eb000148780098
:101184003e0090008040eb00014878003e00900053
:101194000000e8008040eb00014878003e00900029
:1011a4000080e8008040eb00014878003e00900099
:1011b400630040008040eb00014878003e0090004e
:1011c400640040008040eb00014878000a003700ca
:1011d4002e00900069004000904078008140e800b3
:1011e4000148780082b22600e3e624001e00be0017
:1011f400d8fc0700008fbe0018c0b30082b22600de
:10120400e3e624001e00be0030fd07000000e000fd
:1012140001003d000044eb000804e000ecff3a004c
:101224000a0037002e0090006800400090407800cb
:101234008140e8000148780002c22b00e3cb24007f
:101244001e00be00c3fc0700008fbe0018c0b30020
:1012540002c22b00e3cb24001e00be001bfd0700ce
:101264000000e00001003d000044eb000804e00041
:10127400ecff3a000a0037002e009000670040009f
:10128400904078008140e800014878000268290015
:1012940083b124001e00be00aefc0700008fbe0018
:1012a40018c0b3000268290083b124001e00be00e8
:1012b40006fd07000000e00001003d000044eb00d3
:1012c4000804e000ecff3a000a0037002e0090000a
:1012d40066004000904078008140e80001487800b2
:1012e40002402200439724001e00be0099fc070020
:1012f400008fbe0018c0b3000240220043972400b0
:101304001e00be00f1fc07000000e00001003d00eb
:101314000044eb000804e000ecff3a000a00370048
:101324002e00900065004000904078008140e80065
:101334000148780002002500337c24001e00be0012
:1013440084fc0700008fbe0018c0b3000200250013
:10135400337c24001e00be00dcfc07000000e0001b
:1013640001003d000044eb000804e000ecff3a00fb
:101374000a0037002e00900064004000904078007e
:101384008140e8000148780002002400c361240081
:101394001e00be006ffc0700008fbe0018c0b30023
:1013a40002002400c36124001e00be00c7fc070025
:1013b4000000e00001003d000044eb000804e000f0
:1013c400ecff3a000a0037002e0090006300400052
:1013d400904078008140e800014878000200200035
:1013e400a34724001e00be005afc0700008fbe0065
:1013f40018c0b30002002000a34724001e00be0052
:10140400b2fc07000000e00001003d000044eb00d6
:101414000804e000ecff3a000a0037002e009000b8
:101424000080e800904078008140e800014878009e
:1014340002002000832c24001e00be0045fc07008f
:10144400008fbe0018c0b30002002000832c2400cb
:101454001e00be009dfc07000000e00001003d00ee
:101464000044eb000804e000ecff3a000a003700f7
:101474002e0090000000e800904078008140e800d1
:101484000148780002002000031224001e00be0060
:1014940030fc0700008fbe0018c0b300020020001b
:1014a400031224001e00be0088fc07000000e000b8
:1014b40001003d000044eb000804e000ecff3a00aa
:1014c4000a0037002e009000104078008040e800a9
:1014d4002e009000014878000200200003f8230049
:1014e4001e00be001bfc0700008fbe0018c0b30026
:1014f4000200200003f823001e00be0073fc070056
:101504000000e00001003d000044eb000804e0009e
:10151400ecff3a000a0037003e00900010407800cb
:101524008040e8003e00900001487800d2cc2c00b6
:10153400c3dc23001e00be0006fc0700008fbe00b3
:1015440018c0b300d2cc2c00c3dc23001e00be00a4
:101554005efc07000000e00001003d000044eb00d9
:101564000804e000ecff3a000a0037003e00900057
:101574000000e800904078008140e80001487800cd
:10158400a2702d0033c223001e00be00f1fb070031
:10159400008fbe0018c0b300a2702d0033c2230018
:1015a4001e00be0049fc07000000e00001003d00f1
:1015b4000044eb000804e000ecff3a000a003700a6
:1015c4003e0090000080e800904078008140e800f0
:1015d40001487800f226210033a823001e00be0033
:1015e400dcfb0700008fbe0018c0b300f226210008
:1015f40033a823001e00be0034fc07000000e000f6
:1016040001003d000044eb000804e000ecff3a0058
:101614000a0037003e0090006300400090407800cc
:101624008140e8000148780072712b00138d23007b
:101634001e00be00c7fb0700008fbe0018c0b30029
:1016440072712b00138d23001e00be001ffc0700c7
:101654000000e00001003d000044eb000804e0004d
:10166400ecff3a000a0037003e009000640040009e
:10167400904078008140e80001487800c25a2c006c
:10168400737223001e00be00b2fb0700008fbe0071
:1016940018c0b300c25a2c00737223001e00be008f
:1016a4000afc07000000e00001003d000044eb00dc
:1016b4000804e000ecff3a004f0478000080fa00d0
:1016c400000006000800fa00881f7800008fbe00a2
:1016d40022079800330798002e0090008040eb000a
:1016e400014878002e0090000000e8008040eb00e4
:1016f400014878002e0090000080e8008040eb0054
:10170400014878002e009000630040008040eb0008
:10171400014878002e009000640040008040eb00f7
:10172400014878002e009000650040008040eb00e6
:10173400014878002e009000660040008040eb00d5
:10174400014878002e009000670040008040eb00c4
:10175400014878002e009000680040008040eb00b3
:10176400014878002e009000690040008040eb00a2
:10177400014878003e0090008040eb00014878006a
:101784003e0090000000e8008040eb000148780033
:101794003e0090000080e8008040eb0001487800a3
:1017a4003e009000630040008040eb000148780058
:1017b4003e009000640040008040eb000148780047
:1017c4000a0037002e009000690040009040780025
:1017d4008140e8000148780082b22600e3e6240054
:1017e4001e00be005bfb0700008fbe0018c0b300e4
:1017f40082b22600e3e624001e00be00b3fb07000d
:101804000000e00001003d000044eb000804e0009b
:10181400ecff3a000a0037002e00900068004000f8
:10182400904078008140e8000148780002c22b0013
:10183400e3cb24001e00be0046fb0700008fbe0061
:1018440018c0b30002c22b00e3cb24001e00be006c
:101854009efb07000000e00001003d000044eb0097
:101864000804e000ecff3a000a0037002e00900064
:1018740067004000904078008140e800014878000b
:101884000268290083b124001e00be0031fb07005a
:10189400008fbe0018c0b3000268290083b1240081
:1018a4001e00be0089fb07000000e00001003d00af
:1018b4000044eb000804e000ecff3a000a003700a3
:1018c4002e00900066004000904078008140e800bf
:1018d4000148780002402200439724001e00be0005
:1018e4001cfb0700008fbe0018c0b300024022009a
:1018f400439724001e00be0074fb07000000e000b4
:1019040001003d000044eb000804e000ecff3a0055
:101914000a0037002e0090006500400090407800d7
:101924008140e8000148780002002500337c24004f
:101934001e00be0007fb0700008fbe0018c0b300e6
:1019440002002500337c24001e00be005ffb07005c
:101954000000e00001003d000044eb000804e0004a
:10196400ecff3a000a0037002e00900064004000ab
:10197400904078008140e80001487800020024008b
:10198400c36124001e00be00f2fa0700008fbe00ef
:1019940018c0b30002002400c36124001e00be006e
:1019a4004afb07000000e00001003d000044eb009a
:1019b4000804e000ecff3a000a0037002e00900013
:1019c40063004000904078008140e80001487800be
:1019d40002002000a34724001e00be00ddfa070019
:1019e400008fbe0018c0b30002002000a3472400eb
:1019f4001e00be0035fb07000000e00001003d00b2
:101a04000044eb000804e000ecff3a000a00370051
:101a14002e0090000080e800904078008140e800ab
:101a24000148780002002000832c24001e00be0020
:101a3400c8fa0700008fbe0018c0b30002002000df
:101a4400832c24001e00be0020fb07000000e000e1
:101a540001003d000044eb000804e000ecff3a0004
:101a64000a0037002e0090000000e8009040780043
:101a74008140e8000148780002002000031224009d
:101a84001e00be00b3fa0700008fbe0018c0b300ea
:101a940002002000031224001e00be000bfb0700fe
:101aa4000000e00001003d000044eb000804e000f9
:101ab400ecff3a000a0037002e0090001040780036
:101ac4008040e8002e0090000148780002002000c9
:101ad40003f823001e00be009efa0700008fbe001c
:101ae40018c0b3000200200003f823001e00be004b
:101af400f6fa07000000e00001003d000044eb009e
:101b04000804e000ecff3a000a0037003e009000b1
:101b1400104078008040e8003e00900001487800c2
:101b2400d2cc2c00c3dc23001e00be0089fa0700bf
:101b3400008fbe0018c0b300d2cc2c00c3dc23003d
:101b44001e00be00e1fa07000000e00001003d00b5
:101b54000044eb000804e000ecff3a000a00370000
:101b64003e0090000000e800904078008140e800ca
:101b740001487800a2702d0033c223001e00be006d
:101b840074fa0700008fbe0018c0b300a2702d00c5
:101b940033c223001e00be00ccfa07000000e000a0
:101ba40001003d000044eb000804e000ecff3a00b3
:101bb4000a0037003e0090000080e8009040780062
:101bc4008140e80001487800f226210033a8230070
:101bd4001e00be005ffa0700008fbe0018c0b300ed
:101be400f226210033a823001e00be00b7fa070026
:101bf4000000e00001003d000044eb000804e000a8
:101c0400ecff3a000a0037003e00900063004000f9
:101c1400904078008140e8000148780072712b0000
:101c2400138d23001e00be004afa0700008fbe0079
:101c340018c0b30072712b00138d23001e00be0068
:101c4400a2fa07000000e00001003d000044eb00a0
:101c54000804e000ecff3a000a0037003e00900060
:101c640064004000904078008140e800014878001a
:101c7400c25a2c00737223001e00be0035fa0700fe
:101c8400008fbe0018c0b300c25a2c007372230028
:101c94001e00be008dfa07000000e00001003d00b8
:101ca4000044eb000804e000ecff3a004f04780025
:101cb4000080fa00000006000400fa00004f7800db
:101cc400110798001e0090008040eb000148780046
:101cd4001e0090000000e8008040eb0001487800fe
:101ce400070037001e0090000000e80090407800d4
:101cf4008140e800014878009e40780070cf500091
:101d04001e407800ef4f5000f6ff3e001e0090008a
:101d14001e4878000080fa00000006000400fa0063
:101d2400000f7800110798001e0090008040eb001f
:101d3400014878001e0090000000e8008040eb009d
:101d4400014878001e0090000080e8008040eb000d
:101d5400014878001e009000630040008040eb00c2
:101d640001487800070037001e009000630040001f
:101d7400904078008140e8000148780000002f007e
:101d84001e0f4000f0ff20009e007800808f50005e
:101d9400f5ff3e00070037001e0090000080e800b9
:101da400904078008140e8000148780001f02f005d
:101db4001e8f4000f00f20009e007800808f50009e
:101dc400f5ff3e00070037001e0090000000e80009
:101dd400904078008140e800014878009e00780037
:101de400708f50001e007800ef0f5000f6ff3e0089
:101df4001e007800804078001e00900001487800a2
:101e04000080fa00000006000600fa00008fbe0001
:101e1400220798002e0090008040eb0001487800d3
:101e24002e0090000000e8008040eb00014878009c
:101e34002e0090000080e8008040eb00014878000c
:101e44002e009000630040008040eb0001487800c1
:101e54002e009000640040008040eb0001487800b0
:101e64002e009000650040008040eb00014878009f
:101e74002e009000660040008040eb00014878008e
:101e84002e009000670040008040eb00014878007d
:101e9400090037002e009000630040009040780055
:101ea4008140e8000148780000002f00f1ff2f0076
:101eb4001e0f40005e974800f0ff20000100200044
:101ec4001e01be00800f5100818f5900f1ff3e00ba
:101ed400090037002e0090000080e8009040780050
:101ee4008140e8000148780002f02f00f3ff2f0042
:101ef4001e0f41005e974900f00f200001002000f2
:101f04001e01be00800f5100818f5900f1ff3e0079
:101f1400090037002e0090000000e800904078008f
:101f24008140e8000148780002ff2f00f3ff2f00f2
:101f34001e0f41005e9749001e01be00f000200004
:101f440001002000800f5100818f5900f1ff3e00f5
:101f54001e007800804078002e0090000148780030
:101f64000080fa00000006000600fa00004f780026
:101f7400110798009e80fb00a0002000000178005b
:101f8400110009008280d8008040780040002000c1
:101f94000008dd00404798001e81fb00a0002000df
:101fa40080017800110009000381d8008000fd0041
:101fb400004078004e419000804041001e00900097
:101fc400014878000080fa00000006000400fa00ce
:101fd400004f7800110798009e4078006fc16000a0
:101fe4001e80fb004400de00004078006a00b90057
:101ff4000000780000407800804041001e009000fe
:10200400014878000080fa00000006000600fa008b
:1020140020479800210798002e4090000040e900d6
:10202400004f78001e40780080c0ea002e00900027
:10203400014878000080fa00000006000600fa005b
:1020440010079800210798001e009000000fe90077
:102054001e0078008080ea002e00900001087800bd
:102064000080fa00000006000a00fa002007980029
:1020740031079800420798002e009000be0090009f
:102084000081eb008081eb00021f400003974800b1
:102094001e00be000080ea008180ea004e0190002c
:1020a4000089be000080fa00000006000800fa0063
:1020b40020079800614798006000b800008fbe00b8
:1020c400090037001e007800ae0090000080400038
:1020d400ee40900001487800120020000300200028
:1020e4001e0f41005e9749001e01be001000200033
:1020f40001002000800f5100818f5900f1ff36004c
:102104000080fa00000006000800fa00100798009a
:1021140021079800624798000040eb00004f7800c8
:10212400140037001e009000904078002e009000ac
:102134001040780000c068000080fb000000ea0046
:102144004f00de00004078009e0090008100e8000f
:1021540011079800ae0090008100e8002107980064
:102164000004e0000200320010c0b3000600370093
:102174001e4fe8006e4090009e40780080cf5000d3
:10218400e8ff39000040eb000080fa000000060080
:102194000200fa00004f78001e80fb004700de00ba
:1021a40000407800804078001e81fb00000420007d
:1021b400000061004580de000040780080c07000af
:1021c4001e81fb0000022000000061004380de004d
:1021d4000040780080c070001e80fb00700060002a
:1021e4000080d1000040780080c070001e80fb0099
:1021f40068006000000040000040780080c070006b
:102204001e80fb00640060004300dd000040780095
:1022140080c070001e80fb00620060004500dd008d
:102224000040780080c070001e80fb004700dd0085
:102234000040780000c070000080fa000000060032
:102244000a00fa0010079800220798003307980044
:10225400410798002e009000be00900061014000ec
:10226400e08148004218dd00ce10de0081007000dd
:102274004210dd000001be0000a025002126200040
:1022840052f90700000f78001e0090000000e000e3
:1022940017003a0021e2a8002062a8002342a80007
:1022a4009e007800411188008560a9004e009000ce
:1022b40061006000004078000004e000010032008a
:1022c4009560a8004e009000620060000000e000ed
:1022d4002300320023a2a90023e2a90010118000e8
:1022e4000060a1000070a100101188001c003700dc
:1022f4001e009000e10f500017003a0031e2a800e0
:102304003062a8003342a8009e007800c111880002
:1023140087c0a9004e009000610060000040780072
:102324000004e0000100320097c0a8004e009000b5
:10233400620060000000e0000900320033a2a9003e
:1023440033e2a900901180000060a1000070a10098
:1023540090118800020037001000200003003700ad
:10236400e0012000c50807000000eb000080fa002f
:10237400000006003600f800809fbe00829fbe0069
:10238400849fbe00869fbe000000fa0010118000ea
:10239400610060000000e00001003200e90807006d
:1023a4008560a9000080fa004f03be004f02be0002
:1023b4004f01be004f00be003600f9000040060089
:1023c4000400fa00000f7800214798001e007800ee
:1023d4000000e0000a003a00000000001111800033
:1023e40000102000008060000000e000fbff3200cd
:1023f4002e4090000080fb00201188000f00370061
:102404001e007800e10f50000a003a0000000000ae
:102414009111800000102000008060000000e000a6
:10242400fbff32002e4090000080fb00a0118800ca
:102434000200370010002000010037000000eb000c
:102444000080fa00000006000400fa00000f780083
:10245400110798001e0078000000e00013003a0005
:102464000d00370000000000111180000010200052
:10247400008060000000e000fbff32001e009000be
:10248400104078000000fb00201188001e0090001e
:102494000000e800100798001e009000104078002b
:1024a4000004e000efff3a00180037001e00780037
:1024b400e10f500013003a000d0037000000000047
:1024c4001111800000102000008060000000e00076
:1024d400fbff32001e009000104078000000fb005b
:1024e400201188001e0090000000e80010079800ea
:1024f4001e009000104078000004e000efff3a0056
:102504000200370010002000010037000000eb003b
:102514000080fa00000006000a00fa003007980064
:10252400014f98000e4890000080fb008e00780058
:10253400dcf907002e4090000043b0008040780092
:102544003e0090009eff07001e4090000043b00034
:10255400804078003e00900099ff07001e407800fc
:102564000043b000804078003e00900094ff0700d4
:1025740001c2b3003e00900091ff07000000eb0091
:102584000080fa00000006000600fa001007980018
:1025940041479800524798008e0078004e409000c2
:1025a400c5fd07005e4090000080fb0061006000f4
:1025b400004078000004e0000600320001c3b300cc
:1025c4001e0090007eff070081c7b3001e0090002c
:1025d4007bff07001e409000e94f500006003e00bc
:1025e4001e4090000043b000804078001e00900020
:1025f40073ff0700050037001e4090007043b000d1
:10260400804078001e0090006dff07001e40780097
:10261400e94f500006003e001e4078000043b00021
:10262400804078001e00900065ff07000500370019
:102634001e4078007043b000804078001e00900077
:102644005fff07005e4090000080fb0062006000b6
:102654000000e00004003200a1c0b3001e0090009e
:1026640057ff07000300370001c2b3001e009000ab
:1026740053ff07000000eb000080fa000000060092
:102684000a00fa0030079800014f9800124f980092
:102694000e4890000080fb008e00780081f907004e
:1026a4008e48900030c6b30080cf5000050036003d
:1026b4002e4090000043b000804078003e0090001f
:1026c4003fff07000e489000e94f50000500360018
:1026d4001e4090000043b000804078003e0090000f
:1026e40037ff07001e4078000043b00080407800a8
:1026f4003e00900032ff070001c2b3003e0090008c
:102704002fff07001e4890000080fb00620060005d
:102714000000e00004003200a1c0b3003e009000bd
:1027240027ff07000300370001c2b3003e009000fa
:1027340023ff07000000eb000080fa000000060001
:102744000a00fa002007980031079800024f980009
:102754008e0078003e00900070fd07000e48900047
:102764000080fb0061006000004078000004e0008d
:102774000600320001c3b3002e00900010ff0700d2
:1027840081c7b3002e0090000dff07003e4090006b
:10279400e94f500006003e003e4090000043b00068
:1027a400804078002e00900005ff070005003700e8
:1027b4003e4090007043b000804078002e009000ae
:1027c400fffe07002e409000e94f500006003e0037
:1027d4002e4090000043b000804078002e0090000e
:1027e400f7fe0700050037002e4090007043b0004c
:1027f400804078002e009000f1fe07001e409000fb
:10280400e94f500006003e001e4090000043b00017
:10281400804078002e009000e9fe07000500370094
:102824001e4090007043b000804078002e0090005d
:10283400e3fe07001e407800e94f500006003e000a
:102844001e4078000043b000804078002e009000c5
:10285400dbfe0700050037001e4078007043b0001f
:10286400804078002e009000d5fe07000e489000ae
:102874000080fb00620060000000e0000400320001
:10288400a1c0b3002e009000cdfe07000300370066
:1028940001c2b3002e009000c9fe07000000eb0047
:1028a4000080fa00000006000c00fa0030079800cf
:1028b40041079800224f98008e0078004e00900047
:1028c400f8f80700ce009000f0702200808f5000ce
:1028d400050036004e4090000043b0008040780070
:1028e4003e009000b6fe0700ce009000703e20002f
:1028f400808f5000050036003e4090000043b00039
:10290400804078003e009000adfe0700ce009000ad
:1029140030062000808f5000050036002e409000c5
:102924000043b000804078003e009000a4fe070001
:102934004e009000e90f5000050036001e40900044
:102944000043b000804078003e0090009cfe0700e9
:102954001e4078000043b000804078003e009000a4
:1029640097fe070001c2b3003e00900094fe0700ea
:102974002e4890000080fb00620060000000e00030
:1029840004003200a1c0b3003e0090008cfe07009a
:102994000300370001c2b3003e00900088fe070028
:1029a4000000eb000080fa00000006001000fa00ae
:1029b400400798005207980063079800614f9800f9
:1029c4000e0178005e009000ee0090000efd0700fe
:1029d4006e4890000080fb006100600000407800b9
:1029e4000004e0000600320001c3b3004e00900072
:1029f40073fe070081c7b3004e00900070fe07000d
:102a04007e409000e94f500006003e007e4090005a
:102a14000043b000804078004e00900068fe07003c
:102a2400050037007e4090007043b000804078007d
:102a34004e00900062fe07006e409000e94f500087
:102a440006003e006e4090000043b00080407800d5
:102a54004e0090005afe0700050037006e409000bb
:102a64007043b000804078004e00900054fe070090
:102a74005e409000e94f500006003e005e4090002a
:102a84000043b000804078004e0090004cfe0700e8
:102a9400050037005e4090007043b000804078002d
:102aa4004e00900046fe07004e409000e94f500053
:102ab40006003e004e4090000043b0008040780085
:102ac4004e0090003efe0700050037004e40900087
:102ad4007043b000804078004e00900038fe07003c
:102ae4003e409000e94f500006003e003e409000fa
:102af4000043b000804078004e00900030fe070094
:102b0400050037003e4090007043b00080407800dc
:102b14004e0090002afe07002e409000e94f50001e
:102b240006003e002e4090000043b0008040780034
:102b34004e00900022fe0700050037002e40900052
:102b44007043b000804078004e0090001cfe0700e7
:102b54001e409000e94f500006003e001e409000c9
:102b64000043b000804078004e00900014fe07003f
:102b7400050037001e4090007043b000804078008c
:102b84004e0090000efe07001e407800e94f5000f2
:102b940006003e001e4078000043b00080407800ec
:102ba4004e00900006fe0700050037001e40780026
:102bb4007043b000804078004e00900000fe070093
:102bc4006e4890000080fb00620060000000e0009e
:102bd40004003200a1c0b3004e009000f8fd0700cd
:102be4000c0037006e4890000080fb006400600019
:102bf4000000e0000400320001c2b3004e00900067
:102c0400effd07000300370001c2b3004e0090003f
:102c1400ebfd07000000eb000080fa000000060056
:102c24001200fa0050079800620798007307980092
:102c3400015798000e0178006e009000fe0090008d
:102c440063f807006e019000fe019000f09f2c00d5
:102c5400a1b92300800f5100818f5900050036006f
:102c64001e4890000043b000804078005e00900051
:102c7400d3fd07006e019000fe019000f00f2e00be
:102c8400515f2000800f5100818f590005003600ec
:102c94000e4890000043b000804078005e00900031
:102ca400c7fd07006e019000fe019000f067290047
:102cb40081092000800f5100818f590005003600e2
:102cc4007e4090000043b000804078005e00900099
:102cd400bbfd07006e019000fe019000f02324006c
:102ce400f1002000800f5100818f5900050036004b
:102cf4006e4090000043b000804078005e00900079
:102d0400affd07006e019000fe019000f0692800fd
:102d140011002000800f5100818f590005003600fa
:102d24005e4090000043b000804078005e00900058
:102d3400a3fd07006e019000fe019000f0702200d8
:102d440001002000800f5100818f590005003600da
:102d54004e4090000043b000804078005e00900038
:102d640097fd07006e019000fe019000703e200068
:102d740001002000800f5100818f590005003600aa
:102d84003e4090000043b000804078005e00900018
:102d94008bfd07006e019000fe01900030062000bc
:102da40001002000800f5100818f5900050036007a
:102db4002e4090000043b000804078005e009000f8
:102dc4007ffd07006e019000fe019000900020003e
:102dd40001002000800f5100818f5900050036004a
:102de4001e4090000043b000804078005e009000d8
:102df40073fd07001e4078000043b0008040780057
:102e04005e0090006efd070001c2b3005e009000fa
:102e14006bfd07000e5090000080fb006200600014
:102e24000000e00004003200a1c0b3005e00900086
:102e340063fd07000300370001c2b3005e00900089
:102e44005ffd07000000eb000080fa0000000600b0
:102e54001e00fa00200f9800310f9800420f9800ce
:102e6400530f9800640f9800e6004700625e280044
:102e740006000900b21878001e5890000080fb007c
:102e84008e00780087f707001e407800e74f500057
:102e940003003e001e4078000004e00002003a00f7
:102ea40010c0b300004f78001e4078000080fb0083
:102eb4000000e900000040000000470030009000de
:102ec400800078002e0890005ffd070001c2b30067
:102ed4002e0890003afd07002e5890000080fb0059
:102ee4008e0078006ff707001e4090000043b0008a
:102ef400804078002e08900031fd07001e407800c5
:102f04000043b000804078002e0890002cfd07009c
:102f1400f1c2b3002e08900029fd07003e5890002e
:102f24000080fb008e0078005ef707001e409000d2
:102f34000043b000804078002e08900020fd070078
:102f44001e4078000043b000804078002e089000b6
:102f54001bfd0700f1c2b3002e08900018fd070006
:102f64004e5890000080fb008e0078004df707005b
:102f74001e4090000043b000804078002e0890006e
:102f84000ffd07001e4078000043b0008040780029
:102f94002e0890000afd070001c2b3002e0890001d
:102fa40007fd07006e5090000080fb008e00780043
:102fb4003cf707001e4090000043b00080407800ba
:102fc4002e089000fefc07001e4078000043b0006d
:102fd400804078002e089000f9fc0700a1c3b300dc
:102fe4002e089000f6fc07007e5090000080fb0045
:102ff4008e0078002bf707001e4090000043b000bd
:10300400804078002e089000edfc07001e407800f8
:103014000043b000804078002e089000e8fc0700d0
:10302400a1c3b3002e089000e5fc07000e589000e1
:103034000080fb008e0078001af707001e40900005
:103044000043b000804078002e089000dcfc0700ac
:103054001e4078000043b000804078002e089000a5
:10306400d7fc0700a1c0b3002e089000d4fc0700d1
:103074000000eb000080fa00000006000a00fa00dd
:1030840030079800410798004e00900010407800e7
:103094000080fb008e00780002f707001e409000bd
:1030a4000043b000804078003e009000c4fc07005c
:1030b4001e4078000043b000804078003e0090003d
:1030c400bffc0700c1c2b3003e009000bcfc070077
:1030d4004e0090000000e800104078000004e0007a
:1030e40004003a0001c3b3003e009000b4fc0700a2
:1030f4000300370051c3b3003e009000b0fc07004a
:1031040001cbb3003e009000adfc070031c4b30016
:103114003e009000aafc070001c2b3003e009000ec
:10312400a7fc07000000eb000080fa000000060086
:103134000c00fa0020079800320798004307980013
:10314400510798003e019000ce01900000402b00f2
:10315400414c20009df5070072ff2f00f3ff2f0064
:10316400021f4000039748002e0090000000e0007a
:103174001d003a001e007800201088000622ef008f
:103184005e009000620060000000e0000400320075
:103194000782a80040052000501088000100370075
:1031a4000782a90007e2a8005e00900064006000a6
:1031b4000000e000020032009620a8000100370061
:1031c4009620a9008620a9005e0090006800600097
:1031d4000000e000020032009600a8000100370061
:1031e4009600a9008600a900a0002000230507007e
:1031f4000000eb000080fa00000006000400fa0062
:10320400100798000000eb00000f78001e009000eb
:103214000000e00004003a001e0090008300070054
:10322400000f78000602a8001e0078000080fa0053
:10323400000006000400fa00100798000000eb00ec
:10324400000f78001e0090000000e00004003a0027
:103254001e00900075000700000f78000622a800e9
:103264001e0078000080fa00000006000600fa0044
:1032740010079800414798000000eb00000f780009
:103284001e0090000000e0000e003a001e009000b6
:1032940066000700000f78004e4090006140600017
:1032a4000080fb00610060004500dd0032108000fa
:1032b400f1fd2f00810061000100700030108800d2
:1032c4000682a8001e0078000080fa0000000600b4
:1032d4000400fa00100798001e0090005300070035
:1032e4001e0090000000e0000f003a000040eb00d8
:1032f400004f7800080037004110800000002800cb
:10330400008060000000e00002003a000000eb00d2
:10331400060037001e4fe80030c6b3009e40780018
:1033240080cf5000f4ff3600100020000080fa0027
:10333400000006000800fa001007980041479800b2
:10334400320798000000eb00000f78001e00900088
:103354000000e0000e003a001e0090003300070059
:10336400000f78000662a80008c2a900ce409000b1
:103374001e009000bdff0700001080008040780010
:103384003e009000014878001e00780001003700dc
:10339400100020000080fa00000006000600fa0079
:1033a40010079800414798000000eb00000f7800d8
:1033b4001e0090000000e0000e003a001e00900085
:1033c4001a000700000f78004e4090000080fb00b8
:1033d400101088001e009000bdff07000000e000f0
:1033e40002003a000000eb00030037001000200048
:1033f40001003700100020000080fa0000000600e1
:103404000200fa00000f78001e0078000000e000bf
:1034140003003a001e007800040007000642a800da
:103424000000eb000080fa00000006000400fa002f
:10343400100798000000eb00000f78001e009000b9
:103444000000e00023003a00090037001e0fe800e6
:103454001000200075040700301f20009e00780033
:10346400808f500002003600100020001a00370040
:1034740030108000610060000000e000f3ff3a00bb
:1034840030108000640060000000e000efff3a00ac
:1034940030108000680060000000e000ebff3a009c
:1034a40030108000620060000000e000e7ff3a0096
:1034b40030108000700060000000e000e3ff3a007c
:1034c4004110800000002400008060000000e00043
:1034d400deff3a000000eb000080fa000000060066
:1034e4000800fa00100798004147980052479800d6
:1034f400330798000000eb00000f78001e007800ee
:103504000000e00003003a001e0090003bff0700ab
:10351400000f78001e0078000000e00008003a0068
:103524004e4090000080fb00000040000040780006
:10353400804078001e00900098ff0700000f78007c
:103544001e0078000000e00004003a00de40900015
:103554001e00900091ff0700000f78001e00780005
:103564000000e00003003a001e00900031ff070055
:10357400000f78001e0078000000e00009003a0007
:103584004e4090000080fb000000400000407800a6
:103594000004a000804078001e0090007fff070018
:1035a400000f78001e0078000000e00005003a00db
:1035b4003e01900011c0b3001e0090005dff0700a3
:1035c400000f78001e0078000000e00003003a00bd
:1035d4001e0090008aff0700000f78000000eb0037
:1035e4000080fa00000006000800fa0010079800a6
:1035f4004147980052479800634798000000eb0049
:10360400000f78001e0078000000e00003003a007c
:103614001e009000f9fe0700000f78001e007800dd
:103624000000e00008003a004e4090000080fb00db
:103634000000400000407800804078001e009000a8
:1036440056ff0700000f78001e0078000000e0001d
:1036540004003a00de4090001e0090004fff070077
:10366400000f78001e0078000000e00004003a001b
:10367400ee4090001e00900048ff0700000f780005
:103684001e0078000000e00003003a001e009000d5
:103694005bff0700000f78000000eb000080fa00d9
:1036a40000000600809fbe000200fa004010800067
:1036b400640060000000e00008003a00411080004f
:1036c40000022000008060000000e00003003a00d7
:1036d40000108000004f78001a003700401080006e
:1036e400640060000000e00005003a004110800022
:1036f40000022000008060000000e00011003a0099
:1037040040108000640060000000e0000d00320002
:103714004110800000022000008060000000e000f2
:1037240008003a0000108000004f78000782a800cb
:103734000000000040108000610060000000e00014
:10374400fcff3a008600a9000080fa004f00be008a
:10375400004006000000fa008620a9000080fa005c
:10376400004006000200fa000040eb00004f780021
:10377400050037001e80fb00718220000041eb0031
:10378400827078001e4fe8001e407800e34f50001e
:10379400f8ff36009802070040c6b300190107007d
:1037a4009902070020c0b3001601070073822000ad
:1037b4002282200011c0b3000040eb005500070036
:1037c400e10f500005003a00814628000000eb009c
:1037d4001dfb0700100020004c0037000040eb00e8
:1037e400104798001e4090000040e80010479800e1
:1037f400738220002282200011c0b30070c3b30082
:10380400440007000000e00006003a007382200034
:103814002282200011c0b30090c2b3003d00070013
:103824000200370040c6b3001047980020822000f1
:10383400104078000080fb006100600000407800c8
:103844000004e000040032009e40900030c6b30043
:1038540080cf5000e3ff36009e40900030c6b30096
:1038640080cf500005003600d14828000000eb004e
:10387400f5fa0700100020002400370073822000ae
:103884002282200041c0b300a0c3b300210007007e
:10389400e10f500005003a00f14a28000000eb0057
:1038a400e9fa0700100020001800370040822000c9
:1038b400104078008080fb00000c200080806000b5
:1038c400000c2000808f500005003200214d28009c
:1038d4000000eb00dcfa0700100020000b003700aa
:1038e40000202000010020007e0007000000e0000e
:1038f40005003200414f28000000eb00d2fa070017
:1039040010002000010037000000eb000080fa00e6
:10391400000006000a00fa0040479800514798004a
:103924003207980043079800330207004e40900086
:10393400f2c3b3008240600000c4b30000c0700052
:10394400804078000000eb00df0107003000200019
:10395400000f7800080037001e007800ce009000a9
:103964000080400010407800804078000000eb00a8
:10397400d50107001e0fe9001e0078000000e000da
:10398400f5ff3d0051c9b3000000eb00ce01070074
:103994000040eb00204798005e4090000080fb0050
:1039a400e30f50000b003200e30f500003003c0013
:1039b400e10f50000d00350003003700e40f500004
:1039c400070032000a00370010c0b30020479800f7
:1039d4000700370020c0b3002047980004003700d8
:1039e40050c0b300204798000100370000000000d9
:1039f4000000eb00000f78006300470080007800af
:103a04000000eb00d80107001e0fe8003e409000c4
:103a14000004e00004003d00300620009e00780011
:103a2400808f5000f4ff3400300620009e007800a0
:103a3400808f500006003400f3010700f151280084
:103a44000000eb0080fa070010002000230037007c
:103a54002e4090000000fb00000fe9000a00370030
:103a64001e007800be00900000804000be40900020
:103a74000148780063004700800078000000eb00f4
:103a8400b90107001e0fe9001e0078000000e000e5
:103a9400f3ff3d000000eb00000f78005e40900053
:103aa400e24f50000b003a001e0fe800630047008d
:103ab400800078000000eb00ab0107003e4090005e
:103ac400e14f4000f8ff3a0080c0eb000000eb003b
:103ad4007d010700cc0107000000eb000080fa0024
:103ae400000006000400fa00008fbe001e01be00a4
:103af40070822000070007007382200022822000c9
:103b040011c0b30000c1b30082ff07000080fa00b7
:103b1400000006000600fa00000f78001207980063
:103b2400230798009e007800638140001e009000e7
:103b3400ae0090004808de0000407800004978009c
:103b44001e81e8001e009000ae0090004008de00d8
:103b540000407800004978001e01e8001e00900033
:103b6400ae009000c809dd004800de00008071004e
:103b7400c808de0000407800004978001e0090006c
:103b8400804078001e00780001487800d153280056
:103b94000000eb002cfa07001e00780010407800ab
:103ba40032c0b300804078000000eb0076fa0700d2
:103bb4001e00e8001040780032c0b3008040780056
:103bc4000000eb0070fa07001e80e8001040780047
:103bd40032c0b300804078000000eb006afa0700ae
:103be4009e007800638040001040780032c0b3002b
:103bf400804078000000eb0063fa07000080fa00c0
:103c0400000006000400fa00204798000040eb0082
:103c1400004f78000400370080c0eb000000eb0088
:103c2400290107001e4fe8002e4090009e407800b6
:103c340080cf5000f8ff39000080fa000000060031
:103c44000800fa002007980031079800c1542800a2
:103c54002e009000fcf907000040eb00004f7800b4
:103c64001500370001c2b3002e009000d4f90700fc
:103c74001e407800e94f500006003e0001c3b30027
:103c84001ec04000804078002e009000ccf9070050
:103c94000500370071c3b3001ec0400080407800a7
:103ca4002e009000c6f90700115728002e0090003e
:103cb400e5f907001e4fe8001e407800ef4f500062
:103cc400e8ff3600a1c0b3002e009000bcf9070045
:103cd4000040eb00104798004a0037001e40900057
:103ce4000043b000804078002e009000b4f9070033
:103cf40001c3b3002e009000b1f90700315728002a
:103d04002e009000d0f907000040eb0020479800f7
:103d1400330037001e4090000004e00003003a0026
:103d24002e409000e24f5000060036001e409000e6
:103d3400e74f500007003a002e409000e84f500033
:103d440004003600615728002e009000bef90700d9
:103d5400200037003e00900028fd07001e40900020
:103d64000080fb00c400dd002e4090000080fb00ba
:103d7400008040000000400000407800804078004f
:103d84003e00900085fd07003e00900050fd0700b6
:103d94000000e0000a003a009e409000400020002d
:103da4008008dd002e40900000c040000041eb0080
:103db400804078002e009000f3f9070003003700dc
:103dc400a15728002e0090009ff907003e009000a4
:103dd4008bfd07002e4090000040e800204798002b
:103de4002e409000ef4f5000caff3600a1c0b30030
:103df4002e00900072f907001e4090000040e80079
:103e0400104798001e409000e74f5000b3ff360063
:103e1400e15728002e0090008bf907000000eb000a
:103e24000080fa00000006000a00fa00200798004b
:103e340031079800024f98000040eb00304798008b
:103e4400115828002e0090007ff907000040eb0075
:103e5400004f780015003700115728002e009000fd
:103e640079f907001e407800e94f500006003e0033
:103e740001c3b3001ec04000804078002e009000b3
:103e84004ff907000500370071c3b3001ec040009e
:103e9400804078002e00900049f90700115728004f
:103ea4002e00900068f907001e4fe8001e407800bd
:103eb400ef4f5000e8ff3600a1c0b3002e00900081
:103ec4003ff907000040eb00104798004700370017
:103ed4001e409000e94f500006003e001e40900036
:103ee4000043b000804078002e00900034f90700b1
:103ef400050037001e4090007043b00080407800f9
:103f04002e0090002ef90700715a28002e00900010
:103f14004df907000040eb00204798002a003700c5
:103f24003e009000b5fc07000e4890000080fb00a6
:103f34000000400000407800804078003e0090007f
:103f440016fd07009e409000400020008008dd0020
:103f54002e40900000c04000804078003e00900059
:103f64000efd07003e009000b2fc07000e489000d2
:103f74000080fb0000004000004078000004a00026
:103f8400804078003e00900004fd07006300470075
:103f94000001780011c0b3003e009000e5fc07006a
:103fa4003e00900016fd07003e4090000041eb00eb
:103fb400804078002e00900073f907002e40900096
:103fc4000040e800204798002e409000ef4f50003a
:103fd400d3ff3600a1c0b3002e009000f8f807000c
:103fe4001e4090000040e800104798001e409000da
:103ff400ef4f5000b6ff36000000eb000080fa00df
:10400400000006000200fa00000f78001e0078008d
:104014000000e00013003a008540a9009540a90083
:1040240042a2a800101280000000a1000010a1000c
:1040340010128800101280000020a1000030a1009e
:104044000040a100101288004342a9004302a900c5
:1040540042c2a80041e2a8004822ef000000eb00a1
:10406400170037001e007800e10f500013003a00db
:104074008820a9009820a90062a2a800101380003b
:104084000000a1000010a10010138800101380008c
:104094000020a1000030a1000040a10010138800fe
:1040a4006342a9006302a90062c2a80061e2a800f9
:1040b4006822ef000000eb00010037001000200030
:1040c4000080fa00000006000600fa0010079800bd
:1040d400414798001e0090000000e0000e003a00e6
:1040e4004012800000407800004f78004e4090005d
:1040f4000080fb00401288000000000000128000d5
:10410400610060000000e000fcff3200401280000b
:1041140000407800120037001e009000e10f5000ac
:104124000e003a004013800000407800004f7800f1
:104134004e4090000080fb00401388000000000007
:1041440000138000610060000000e000fcff32000a
:1041540040138000004078000100370010c0b30015
:104164000080fa00000006000400fa00000f780046
:10417400110798001e0078000000e0000c003a00cf
:104184004822ef000000000000128000610060007f
:104194000000e000fcff3200401280008040780004
:1041a4001e009000014878000000eb00100037006a
:1041b4001e007800e10f50000c003a006822ef0066
:1041c4000000000000138000610060000000e000b7
:1041d400fcff320040138000804078001e009000f5
:1041e400014878000000eb000100370010002000b7
:1041f4000080fa00000006000000fa00cc22a900aa
:104204000080fa00000006000000fa00cc22a8009a
:104214000080fa00000006000000fa008540a900b2
:104224000080fa00004006000000fa008820a9007f
:104234000080fa00004006000200fa00eeff0700ca
:10424400500020004012880000000000001280008e
:10425400610060000000e000fcff320040128000ba
:10426400004f7800f00f200040128800000000008a
:1042740000128000610060000000e000fcff3200da
:1042840040128000004f7800dfff07001e407800d6
:104294000080fa00000006000400fa00204798009d
:1042a400d5ff070010002000401288000000000025
:1042b40000128000610060000000e000fcff32009a
:1042c40040128000004f78002e4090000080fb00d8
:1042d40040128800000000000012800061006000ad
:1042e4000000e000fcff320040128000004f780024
:1042f400c5ff07000040eb000080fa000000060044
:104304000600fa0010079800414798004e409000bc
:104314000080fb00401288000000000000128000b2
:10432400610060000000e000fcff320040128000e9
:10433400004f78001e0090004800de000040780026
:104344000080fb0040128800000000000012800082
:10435400610060000000e000fcff320040128000b9
:10436400004f78001e009000004078000080fb00a1
:10437400401288000000000000128000610060000c
:104384000000e000fcff320040128000004f780083
:104394000080fa00000006000400fa00000f780014
:1043a4002147980010c0b300bbff070092ff07002d
:1043b40021c0b3001e007800d1ff07002e409000fa
:1043c4000080fb0040128800000000000012800002
:1043d400610060000000e000fcff32004012800039
:1043e4002047980088ff07000040eb000080fa0097
:1043f400000006000400fa001007980010c0b30083
:10440400a5ff07007cff070031c0b3001e00900029
:10441400bbff0700f00f20004012880000000000de
:1044240000128000610060000000e000fcff320028
:1044340040128000004f780073ff07001e40780090
:104444000080fa00000006000400fa00100798003b
:104454001e00900080004000808120000080400009
:10446400100f78001e007800104078000080fb00d8
:10447400303a88001e0078001040900063406000cd
:104484000080fb00630060004600dd00223a8000eb
:10449400f1f32f008100610001007000203a8800d0
:1044a4001e007800204090007f4060000080fb00e8
:1044b4007f006000223a800001fe2f00810061002d
:1044c40001007000203a88004827ef0040a7a900a7
:1044d4003200200080072000a1092000337420004e
:1044e40080497800814978008249780012002000d0
:1044f40060042000710520002374200080497800a6
:10450400814978008249780000000000113a800057
:10451400000027008080600000002300808f50008e
:10452400faff3a0000000000113a80000002200067
:10453400008060000000e000fbff32000080fa0011
:10454400000006000000fa0020002000beff070063
:10455400c022ef00c822ef00c9c2a800c8e2a80028
:104564002135800000fe2f0000806000e000b300d1
:104574002035880071368000f00f2e0080806000a6
:104584000030200001007000703688004135800042
:1045940000fe2f00008060007000b30040358800ea
:1045a4003136800000fe2f00008060007000b300f0
:1045b4003036880021368000f00f2e0080806000a5
:1045c4000080200001007000203688000080eb008d
:1045d4006019880040062000280007001100200010
:1045e40002202c00130020000000eb0014f7070049
:1045f400415f28000000eb0093f707000000eb0088
:1046040080fe070057fc0700cc02a800cc82a9005a
:104614006009200019000700cc02a900cc82a80080
:104624006009200015000700f7ff37000600fa00b4
:1046340020079800ae009000010f78000a003700b0
:104644008000200010079800030037001e0090002f
:104654000000e900100798001e0090000000e00030
:10466400faff3a001e0fe9001e0078000000e00087
:10467400f3ff3a000080fa00000006000600fa008a
:1046840020079800ae009000010f78000a00370060
:104694000071220010079800030037001e009000ec
:1046a4000000e900100798001e0090000000e000e0
:1046b400faff3a001e0fe9001e0078000000e00037
:1046c400f3ff3a000080fa00000006000000fa0040
:1046d4000080fa00000006000000fa000080fa00e2
:1046e400000006000000fa000080fa000000060046
:1046f4000000fa000080fa00000006000000fa0042
:104704000080fa00000006000000fa008400a900fe
:104714000080fa00000006000000fa008680a9006c
:104724000080fa00000006000000fa0087a0a9003b
:104734000080fa00000006000000fa000080fa0081
:10474400000006000000fa00101180000080fa004a
:04475400000006005b
:020000040000fa
:10475800040800001e000000020000002e000000f7
:104768000026000000001e00000000001e000200dd
:10477800001e000003000400080808000c081000d0
:1047880008140800000800000400000000000000f1
:10479800220800000a00000000000000d423800066
:020000040000fa
:0447a800000000000d
:020000040000fa
:0200000401f009
:04000c00820000006e
:020000040000fa
:0200000401f009
:040010007aff000073
:020000040000fa
:0200000401f009
:040014005f00000089
:020000040000fa
:0200000401f009
:04001800f7000000ed
:020000040000fa
:0200000401f009
:04001c00dfff000002
:00000001FF
