:020000040000FA
:06000000A9EF29F0120037
:020006001200E6
:060008005CEF19F012008C
:02000E000200EE
:10001000A55300009400000003000000A25300005C
:08002000910000000300000044
:08002800D9CFE6FFE1CFD9FFBB
:10003000FE0EDB50300FE66EFC0EDBCFE9FFFD0E4F
:10004000DBCFEAFFE552E750EF6EFC0EDBCFE9FFB6
:10005000FD0EDBCFEAFFEF5039080AE2070E006E13
:10006000FC0EDBCFE9FFFD0EDBCFEAFF0050EF26F1
:10007000E552E7CFD9FF1200D9CFE6FFE1CFD9FF94
:10008000FE0EDB50D00FE66EFC0EDBCFE9FFFD0E5F
:10009000DBCFEAFFE552E750EF6EFC0EDBCFE9FF66
:1000A000FD0EDBCFEAFFEF5009080AE2070E006EF3
:1000B000FC0EDBCFE9FFFD0EDBCFEAFF0050EF5E69
:1000C000E552E7CFD9FF1200D9CFE6FFE1CFD9FF44
:1000D000FB0EDBCFE9FFFC0EDBCFEAFFEF6A010E80
:1000E000E76EFB0EDBCFE9FFFC0EDBCFEAFFE7504C
:1000F000E926000EEA22EF6A020EE76EFB0EDBCF66
:10010000E9FFFC0EDBCFEAFFE750E926000EEA220A
:10011000EF6A030EE76EFB0EDBCFE9FFFC0EDBCFD1
:10012000EAFFE750E926000EEA22EF6A040EE76EC6
:10013000FB0EDBCFE9FFFC0EDBCFEAFFE750E92641
:10014000000EEA22EF6AFD0EDBCF00F0FE0EDBCFE1
:1001500001F0100E005C270E015818E3040EE76E44
:10016000FB0EDBCFE9FFFC0EDBCFEAFFE750E92611
:10017000000EEA22EF2AD950FD0FE96EFF0EDA20B9
:10018000EA6E100EEE5E270EED5ADDD7FD0EDBCFC8
:1001900000F0FE0EDBCF01F0E80E005C030E01580C
:1001A00018E3030EE76EFB0EDBCFE9FFFC0EDBCF9F
:1001B000EAFFE750E926000EEA22EF2AD950FD0FA8
:1001C000E96EFF0EDA20EA6EE80EEE5E030EED5ADF
:1001D000DDD7FD0EDBCF00F0FE0EDBCF01F0640EAD
:1001E000005C000E015818E3020EE76EFB0EDBCF39
:1001F000E9FFFC0EDBCFEAFFE750E926000EEA221A
:10020000EF2AD950FD0FE96EFF0EDA20EA6E640E78
:10021000EE5E000EED5ADDD7FD0EDBCF00F0FE0ED8
:10022000DBCF01F00A0E005C000E015818E3010E4E
:10023000E76EFB0EDBCFE9FFFC0EDBCFEAFFE750FA
:10024000E926000EEA22EF2AD950FD0FE96EFF0ED3
:10025000DA20EA6E0A0EEE5E000EED5ADDD7FB0ED6
:10026000DBCFE9FFFC0EDBCFEAFFFD0EDBCFEFFFBC
:10027000E552E7CFD9FF1200D9CFE6FFE1CFD9FF92
:10028000F90EDBCFE9FFFA0EDBCFEAFFEF6A010ED2
:10029000E76EF90EDBCFE9FFFA0EDBCFEAFFE7509E
:1002A000E926000EEA22EF6A020EE76EF90EDBCFB6
:1002B000E9FFFA0EDBCFEAFFE750E926000EEA225B
:1002C000EF6A030EE76EF90EDBCFE9FFFA0EDBCF24
:1002D000EAFFE750E926000EEA22EF6A040EE76E15
:1002E000F90EDBCFE9FFFA0EDBCFEAFFE750E92694
:1002F000000EEA22EF6A050EE76EF90EDBCFE9FF8A
:10030000FA0EDBCFEAFFE750E926000EEA22EF6A99
:10031000060EE76EF90EDBCFE9FFFA0EDBCFEAFF40
:10032000E750E926000EEA22EF6A070EE76EF90EA3
:10033000DBCFE9FFFA0EDBCFEAFFE750E926000E3C
:10034000EA22EF6A080EE76EF90EDBCFE9FFFA0E3C
:10035000DBCFEAFFE750E926000EEA22EF6A090E3A
:10036000E76EF90EDBCFE9FFFA0EDBCFEAFFE750CD
:10037000E926000EEA22EF6AD950FB0FE96EFF0E64
:10038000DA20EA6E000EEE5CCA0EEE589A0EEE58B7
:100390003B0EEE581BE3090EE76EF90EDBCFE9FFCB
:1003A000FA0EDBCFEAFFE750E926000EEA22EF2A39
:1003B000D950FB0FE96EFF0EDA20EA6EEE52CA0E3C
:1003C000EE5E9A0EEE5A3B0EEE5AD6D7D950FB0F80
:1003D000E96EFF0EDA20EA6E000EEE5CE10EEE58DA
:1003E000F50EEE58050EEE581BE3080EE76EF90EFB
:1003F000DBCFE9FFFA0EDBCFEAFFE750E926000E7C
:10040000EA22EF2AD950FB0FE96EFF0EDA20EA6EDE
:10041000EE52E10EEE5EF50EEE5A050EEE5AD6D70E
:10042000D950FB0FE96EFF0EDA20EA6E800EEE5C0B
:10043000960EEE58980EEE58000EEE581CE3070E7E
:10044000E76EF90EDBCFE9FFFA0EDBCFEAFFE750EC
:10045000E926000EEA22EF2AD950FB0FE96EFF0EC3
:10046000DA20EA6E800EEE5E960EEE5A980EEE5A86
:10047000000EEE5AD5D7D950FB0FE96EFF0EDA20E9
:10048000EA6E400EEE5C420EEE580F0EEE58000E75
:10049000EE581CE3060EE76EF90EDBCFE9FFFA0E0D
:1004A000DBCFEAFFE750E926000EEA22EF2AD95017
:1004B000FB0FE96EFF0EDA20EA6E400EEE5E420E92
:1004C000EE5A0F0EEE5A000EEE5AD5D7D950FB0F4A
:1004D000E96EFF0EDA20EA6EA00EEE5C860EEE5894
:1004E000010EEE58000EEE581CE3050EE76EF90EF5
:1004F000DBCFE9FFFA0EDBCFEAFFE750E926000E7B
:10050000EA22EF2AD950FB0FE96EFF0EDA20EA6EDD
:10051000A00EEE5E860EEE5A010EEE5A000EEE5A58
:10052000D5D7D950FB0FE96EFF0EDA20EA6E100E18
:10053000EE5C270EEE58000EEE58000EEE581BE350
:10054000040EE76EF90EDBCFE9FFFA0EDBCFEAFF10
:10055000E750E926000EEA22EF2AD950FB0FE96E98
:10056000FF0EDA20EA6E100EEE5E270EEE5A000E37
:10057000EE5AEE5AD6D7D950FB0FE96EFF0EDA20AD
:10058000EA6EE80EEE5C030EEE58000EEE58000E1A
:10059000EE581BE3030EE76EF90EDBCFE9FFFA0E10
:1005A000DBCFEAFFE750E926000EEA22EF2AD95016
:1005B000FB0FE96EFF0EDA20EA6EE80EEE5E030E28
:1005C000EE5A000EEE5AEE5AD6D7D950FB0FE96E0E
:1005D000FF0EDA20EA6E640EEE5C000EEE58000E9E
:1005E000EE58000EEE581AE3020EE76EF90EDBCF5E
:1005F000E9FFFA0EDBCFEAFFE750E926000EEA2218
:10060000EF2AD950FB0FE96EFF0EDA20EA6E640E76
:10061000EE5E000EEE5AEE5AEE5AD7D7D950FB0FC7
:10062000E96EFF0EDA20EA6E0A0EEE5C000EEE585E
:10063000000EEE58000EEE581AE3010EE76EF90EAA
:10064000DBCFE9FFFA0EDBCFEAFFE750E926000E29
:10065000EA22EF2AD950FB0FE96EFF0EDA20EA6E8C
:100660000A0EEE5E000EEE5AEE5AEE5AD7D7F90E8B
:10067000DBCFE9FFFA0EDBCFEAFFFB0EDBCFEFFFAC
:10068000E552E7CFD9FF1200D9CFE6FFE1CFD9FF7E
:10069000F90EDBCFE9FFFA0EDBCFEAFFEF6A010EBE
:1006A000E76EF90EDBCFE9FFFA0EDBCFEAFFE7508A
:1006B000E926000EEA22EF6A020EE76EF90EDBCFA2
:1006C000E9FFFA0EDBCFEAFFE750E926000EEA2247
:1006D000EF6A030EE76EF90EDBCFE9FFFA0EDBCF10
:1006E000EAFFE750E926000EEA22EF6A040EE76E01
:1006F000F90EDBCFE9FFFA0EDBCFEAFFE750E92680
:10070000000EEA22EF6A050EE76EF90EDBCFE9FF75
:10071000FA0EDBCFEAFFE750E926000EEA22EF6A85
:10072000060EE76EF90EDBCFE9FFFA0EDBCFEAFF2C
:10073000E750E926000EEA22EF6A070EE76EF90E8F
:10074000DBCFE9FFFA0EDBCFEAFFE750E926000E28
:10075000EA22EF6A080EE76EF90EDBCFE9FFFA0E28
:10076000DBCFEAFFE750E926000EEA22EF6A090E26
:10077000E76EF90EDBCFE9FFFA0EDBCFEAFFE750B9
:10078000E926000EEA22EF6AF70EDBCFE9FFF80E4A
:10079000DBCFEAFFEF6A010EE76EF70EDBCFE9FF72
:1007A000F80EDBCFEAFFE750E926000EEA22EF6AF7
:1007B000020EE76EF70EDBCFE9FFF80EDBCFEAFFA4
:1007C000E750E926000EEA22EF6A030EE76EF70E05
:1007D000DBCFE9FFF80EDBCFEAFFE750E926000E9A
:1007E000EA22EF6A040EE76EF70EDBCFE9FFF80EA0
:1007F000DBCFEAFFE750E926000EEA22EF6AFB0EA4
:10080000DBCF00F0FC0EDBCF01F0FD0EDBCF02F002
:10081000FE0EDBCF03F0280E266E6B0E276E6E0EDB
:10082000286E4E0E296E00C021F001C022F002C0D9
:1008300023F003C024F04AEC1EF0010A36E0090E52
:10084000E76EF90EDBCFE9FFFA0EDBCFEAFFE750E8
:10085000E926000EEA22EF2A280E006E6B0E016ECA
:100860006E0E026E4E0E036ED950FB0FE96EFF0E38
:10087000DA20EA6EEECF21F0EECF22F0EECF23F0B9
:10088000EFCF24F000C026F001C027F002C028F00E
:1008900003C029F0BBEC1CF024C0EDFF23C0EDFF2A
:1008A00022C0EDFF21C0EFFFAAD7FB0EDBCF00F087
:1008B000FC0EDBCF01F0FD0EDBCF02F0FE0EDBCF36
:1008C00003F0200E266EBC0E276EBE0E286E4C0E58
:1008D000296E00C021F001C022F002C023F003C045
:1008E00024F04AEC1EF0010A36E0080EE76EF90E1D
:1008F000DBCFE9FFFA0EDBCFEAFFE750E926000E77
:10090000EA22EF2A200E006EBC0E016EBE0E026EB1
:100910004C0E036ED950FB0FE96EFF0EDA20EA6E23
:10092000EECF21F0EECF22F0EECF23F0EFCF24F088
:1009300000C026F001C027F002C028F003C029F053
:10094000BBEC1CF024C0EDFF23C0EDFF22C0EDFF87
:1009500021C0EFFFAAD7FB0EDBCF00F0FC0EDBCFF0
:1009600001F0FD0EDBCF02F0FE0EDBCF03F0800EB8
:10097000266E960E276E180E286E4B0E296E00C03E
:1009800021F001C022F002C023F003C024F04AECA1
:100990001EF0010A36E0070EE76EF90EDBCFE9FF25
:1009A000FA0EDBCFEAFFE750E926000EEA22EF2A33
:1009B000800E006E960E016E180E026E4B0E036EC8
:1009C000D950FB0FE96EFF0EDA20EA6EEECF21F070
:1009D000EECF22F0EECF23F0EFCF24F000C026F0D0
:1009E00001C027F002C028F003C029F0BBEC1CF0C6
:1009F00024C0EDFF23C0EDFF22C0EDFF21C0EFFFBB
:100A0000AAD7FB0EDBCF00F0FC0EDBCF01F0FD0E12
:100A1000DBCF02F0FE0EDBCF03F0266A240E276E3A
:100A2000740E286E490E296E00C021F001C022F01C
:100A300002C023F003C024F04AEC1EF0010A35E0A6
:100A4000060EE76EF90EDBCFE9FFFA0EDBCFEAFF09
:100A5000E750E926000EEA22EF2A006A240E016E12
:100A6000740E026E490E036ED950FB0FE96EFF0E35
:100A7000DA20EA6EEECF21F0EECF22F0EECF23F0B7
:100A8000EFCF24F000C026F001C027F002C028F00C
:100A900003C029F0BBEC1CF024C0EDFF23C0EDFF28
:100AA00022C0EDFF21C0EFFFACD7FB0EDBCF00F083
:100AB000FC0EDBCF01F0FD0EDBCF02F0FE0EDBCF34
:100AC00003F0266A500E276EC30E286E470E296E5D
:100AD00000C021F001C022F002C023F003C024F0C6
:100AE0004AEC1EF0010A35E0050EE76EF90EDBCF89
:100AF000E9FFFA0EDBCFEAFFE750E926000EEA2213
:100B0000EF2A006A500E016EC30E026E470E036E8E
:100B1000D950FB0FE96EFF0EDA20EA6EEECF21F01E
:100B2000EECF22F0EECF23F0EFCF24F000C026F07E
:100B300001C027F002C028F003C029F0BBEC1CF074
:100B400024C0EDFF23C0EDFF22C0EDFF21C0EFFF69
:100B5000ACD7FB0EDBCF00F0FC0EDBCF01F0FD0EBF
:100B6000DBCF02F0FE0EDBCF03F0266A400E276ECD
:100B70001C0E286E460E296E00C021F001C022F026
:100B800002C023F003C024F04AEC1EF0010A35E055
:100B9000040EE76EF90EDBCFE9FFFA0EDBCFEAFFBA
:100BA000E750E926000EEA22EF2A006A400E016EA5
:100BB0001C0E026E460E036ED950FB0FE96EFF0E3F
:100BC000DA20EA6EEECF21F0EECF22F0EECF23F066
:100BD000EFCF24F000C026F001C027F002C028F0BB
:100BE00003C029F0BBEC1CF024C0EDFF23C0EDFFD7
:100BF00022C0EDFF21C0EFFFACD7FB0EDBCF00F032
:100C0000FC0EDBCF01F0FD0EDBCF02F0FE0EDBCFE2
:100C100003F0266A276A7A0E286E440E296E00C0F9
:100C200021F001C022F002C023F003C024F04AECFE
:100C30001EF0010A34E0030EE76EF90EDBCFE9FF88
:100C4000FA0EDBCFEAFFE750E926000EEA22EF2A90
:100C5000006A016A7A0E026E440E036ED950FB0FD1
:100C6000E96EFF0EDA20EA6EEECF21F0EECF22F031
:100C7000EECF23F0EFCF24F000C026F001C027F024
:100C800002C028F003C029F0BBEC1CF024C0EDFF2B
:100C900023C0EDFF22C0EDFF21C0EFFFAED7FB0E5A
:100CA000DBCF00F0FC0EDBCF01F0FD0EDBCF02F05E
:100CB000FE0EDBCF03F0266A276AC80E286E420EAE
:100CC000296E00C021F001C022F002C023F003C051
:100CD00024F04AEC1EF0010A34E0020EE76EF90E31
:100CE000DBCFE9FFFA0EDBCFEAFFE750E926000E83
:100CF000EA22EF2A006A016AC80E026E420E036EF3
:100D0000D950FB0FE96EFF0EDA20EA6EEECF21F02C
:100D1000EECF22F0EECF23F0EFCF24F000C026F08C
:100D200001C027F002C028F003C029F0BBEC1CF082
:100D300024C0EDFF23C0EDFF22C0EDFF21C0EFFF77
:100D4000AED7FB0EDBCF00F0FC0EDBCF01F0FD0ECB
:100D5000DBCF02F0FE0EDBCF03F0266A276A200EFF
:100D6000286E410E296E00C021F001C022F002C0A1
:100D700023F003C024F04AEC1EF0010A34E0010E17
:100D8000E76EF90EDBCFE9FFFA0EDBCFEAFFE750A3
:100D9000E926000EEA22EF2A006A016A200E026E9E
:100DA000410E036ED950FB0FE96EFF0EDA20EA6E9A
:100DB000EECF21F0EECF22F0EECF23F0EFCF24F0F4
:100DC00000C026F001C027F002C028F003C029F0BF
:100DD000BBEC1CF024C0EDFF23C0EDFF22C0EDFFF3
:100DE00021C0EFFFAED7FB0EDBCF00F0FC0EDBCF58
:100DF00001F0FD0EDBCF02F0FE0EDBCF03F0266A22
:100E0000276A800E286E3F0E296E00C021F001C0B7
:100E100022F002C023F003C024F04AEC1EF0010AC5
:100E20002EE0F90EDBCFE9FFFA0EDBCFEAFFEF2A67
:100E3000006A016A800E026E3F0E036ED950FB0FEE
:100E4000E96EFF0EDA20EA6EEECF21F0EECF22F04F
:100E5000EECF23F0EFCF24F000C026F001C027F042
:100E600002C028F003C029F0BBEC1CF024C0EDFF49
:100E700023C0EDFF22C0EDFF21C0EFFFB4D7FB0E72
:100E8000DBCF00F0FC0EDBCF01F0FD0EDBCF02F07C
:100E9000FE0EDBCF03F0CD0E266ECC0E276E286E35
:100EA0003D0E296E00C021F001C022F002C023F0E7
:100EB00003C024F04AEC1EF0010A2FE0F70EDBCF4E
:100EC000E9FFF80EDBCFEAFFEF2ACD0E006ECC0E65
:100ED000016E026E3D0E036ED950FB0FE96EFF0EE0
:100EE000DA20EA6EEECF21F0EECF22F0EECF23F043
:100EF000EFCF24F000C026F001C027F002C028F098
:100F000003C029F0BBEC1CF024C0EDFF23C0EDFFB3
:100F100022C0EDFF21C0EFFFB2D7FB0EDBCF00F008
:100F2000FC0EDBCF01F0FD0EDBCF02F0FE0EDBCFBF
:100F300003F00A0E266ED70E276E230E286E3C0E87
:100F4000296E00C021F001C022F002C023F003C0CE
:100F500024F04AEC1EF0010A36E0010EE76EF70EAF
:100F6000DBCFE9FFF80EDBCFEAFFE750E926000E02
:100F7000EA22EF2A0A0E006ED70E016E230E026ED1
:100F80003C0E036ED950FB0FE96EFF0EDA20EA6EBD
:100F9000EECF21F0EECF22F0EECF23F0EFCF24F012
:100FA00000C026F001C027F002C028F003C029F0DD
:100FB000BBEC1CF024C0EDFF23C0EDFF22C0EDFF11
:100FC00021C0EFFFAAD7FB0EDBCF00F0FC0EDBCF7A
:100FD00001F0FD0EDBCF02F0FE0EDBCF03F06F0E53
:100FE000266E120E276E830E286E3A0E296E00C0F2
:100FF00021F001C022F002C023F003C024F04AEC2B
:101000001EF0010A36E0020EE76EF70EDBCFE9FFB5
:10101000F80EDBCFEAFFE750E926000EEA22EF2ABE
:101020006F0E006E120E016E830E026E3A0E036E8C
:10103000D950FB0FE96EFF0EDA20EA6EEECF21F0F9
:10104000EECF22F0EECF23F0EFCF24F000C026F059
:1010500001C027F002C028F003C029F0BBEC1CF04F
:1010600024C0EDFF23C0EDFF22C0EDFF21C0EFFF44
:10107000AAD7FB0EDBCF00F0FC0EDBCF01F0FD0E9C
:10108000DBCF02F0FE0EDBCF03F0170E266EB70E9D
:10109000276ED10E286E380E296E00C021F001C0D7
:1010A00022F002C023F003C024F04AEC1EF0010A33
:1010B00036E0030EE76EF70EDBCFE9FFF80EDBCF6D
:1010C000EAFFE750E926000EEA22EF2A170E006E2B
:1010D000B70E016ED10E026E380E036ED950FB0FA3
:1010E000E96EFF0EDA20EA6EEECF21F0EECF22F0AD
:1010F000EECF23F0EFCF24F000C026F001C027F0A0
:1011000002C028F003C029F0BBEC1CF024C0EDFFA6
:1011100023C0EDFF22C0EDFF21C0EFFFAAD7FB0ED9
:10112000DBCF00F0FC0EDBCF01F0FD0EDBCF02F0D9
:10113000FE0EDBCF03F0AC0E266EC50E276E270E1B
:10114000286E370E296E00C021F001C022F002C0C7
:1011500023F003C024F04AEC1EF0010A36E0040E2E
:10116000E76EF70EDBCFE9FFF80EDBCFEAFFE750C3
:10117000E926000EEA22EF2AAC0E006EC50E016EC3
:10118000270E026E370E036ED950FB0FE96EFF0E6D
:10119000DA20EA6EEECF21F0EECF22F0EECF23F090
:1011A000EFCF24F000C026F001C027F002C028F0E5
:1011B00003C029F0BBEC1CF024C0EDFF23C0EDFF01
:1011C00022C0EDFF21C0EFFFAAD7E552E7CFD9FF3C
:1011D0001200D9CFE6FFE1CFD9FFF90EDBCFE9FF4F
:1011E000FA0EDBCFEAFFEF6A010EE76EF90EDBCFF6
:1011F000E9FFFA0EDBCFEAFFE750E926000EEA220C
:10120000EF6A020EE76EF90EDBCFE9FFFA0EDBCFD5
:10121000EAFFE750E926000EEA22EF6A030EE76EC6
:10122000F90EDBCFE9FFFA0EDBCFEAFFE750E92644
:10123000000EEA22EF6A040EE76EF90EDBCFE9FF3B
:10124000FA0EDBCFEAFFE750E926000EEA22EF6A4A
:10125000050EE76EF90EDBCFE9FFFA0EDBCFEAFFF2
:10126000E750E926000EEA22EF6A060EE76EF90E55
:10127000DBCFE9FFFA0EDBCFEAFFE750E926000EED
:10128000EA22EF6A070EE76EF90EDBCFE9FFFA0EEE
:10129000DBCFEAFFE750E926000EEA22EF6A080EEC
:1012A000E76EF90EDBCFE9FFFA0EDBCFEAFFE7507E
:1012B000E926000EEA22EF6A090EE76EF90EDBCF8F
:1012C000E9FFFA0EDBCFEAFFE750E926000EEA223B
:1012D000EF6AF70EDBCFE9FFF80EDBCFEAFFEF6A2C
:1012E000010EE76EF70EDBCFE9FFF80EDBCFEAFF6A
:1012F000E750E926000EEA22EF6A020EE76EF70ECB
:10130000DBCFE9FFF80EDBCFEAFFE750E926000E5E
:10131000EA22EF6A030EE76EF70EDBCFE9FFF80E65
:10132000DBCFEAFFE750E926000EEA22EF6A040E5F
:10133000E76EF70EDBCFE9FFF80EDBCFEAFFE750F1
:10134000E926000EEA22EF6AFB0EDBCF00F0FC0E6E
:10135000DBCF01F0FD0EDBCF02F0FE0EDBCF03F0A2
:10136000280E266E6B0E276E6E0E286E4E0E296EA0
:1013700000C021F001C022F002C023F003C024F01D
:101380004AEC1EF0010A36E0090EE76EF90EDBCFDB
:10139000E9FFFA0EDBCFEAFFE750E926000EEA226A
:1013A000EF2A280E006E6B0E016E6E0E026E4E0E50
:1013B000036ED950FB0FE96EFF0EDA20EA6EEECF16
:1013C00021F0EECF22F0EECF23F0EFCF24F000C0DB
:1013D00026F001C027F002C028F003C029F0BBECC2
:1013E0001CF024C0EDFF23C0EDFF22C0EDFF21C0A3
:1013F000EFFFAAD7FB0EDBCF00F0FC0EDBCF01F036
:10140000FD0EDBCF02F0FE0EDBCF03F0200E266ECA
:10141000BC0E276EBE0E286E4C0E296E00C021F049
:1014200001C022F002C023F003C024F04AEC1EF0F9
:10143000010A36E0080EE76EF90EDBCFE9FFFA0E7F
:10144000DBCFEAFFE750E926000EEA22EF2A200E62
:10145000006EBC0E016EBE0E026E4C0E036ED950B5
:10146000FB0FE96EFF0EDA20EA6EEECF21F0EECF31
:1014700022F0EECF23F0EFCF24F000C026F001C021
:1014800027F002C028F003C029F0BBEC1CF024C0F8
:10149000EDFF23C0EDFF22C0EDFF21C0EFFFAAD773
:1014A000FB0EDBCF00F0FC0EDBCF01F0FD0EDBCF3F
:1014B00002F0FE0EDBCF03F0800E266E960E276E36
:1014C000180E286E4B0E296E00C021F001C022F0CC
:1014D00002C023F003C024F04AEC1EF0010A36E0FB
:1014E000070EE76EF90EDBCFE9FFFA0EDBCFEAFF5E
:1014F000E750E926000EEA22EF2A800E006E960ED3
:10150000016E180E026E4B0E036ED950FB0FE96E82
:10151000FF0EDA20EA6EEECF21F0EECF22F0EECF12
:1015200023F0EFCF24F000C026F001C027F002C066
:1015300028F003C029F0BBEC1CF024C0EDFF23C051
:10154000EDFF22C0EDFF21C0EFFFAAD7FB0EDBCFDE
:1015500000F0FC0EDBCF01F0FD0EDBCF02F0FE0E43
:10156000DBCF03F0266A240E276E740E286E490E18
:10157000296E00C021F001C022F002C023F003C098
:1015800024F04AEC1EF0010A35E0060EE76EF90E73
:10159000DBCFE9FFFA0EDBCFEAFFE750E926000ECA
:1015A000EA22EF2A006A240E016E740E026E490EC2
:1015B000036ED950FB0FE96EFF0EDA20EA6EEECF14
:1015C00021F0EECF22F0EECF23F0EFCF24F000C0D9
:1015D00026F001C027F002C028F003C029F0BBECC0
:1015E0001CF024C0EDFF23C0EDFF22C0EDFF21C0A1
:1015F000EFFFACD7FB0EDBCF00F0FC0EDBCF01F032
:10160000FD0EDBCF02F0FE0EDBCF03F0266A500E9C
:10161000276EC30E286E470E296E00C021F001C050
:1016200022F002C023F003C024F04AEC1EF0010AAD
:1016300035E0050EE76EF90EDBCFE9FFFA0EDBCFE2
:10164000EAFFE750E926000EEA22EF2A006A500E70
:10165000016EC30E026E470E036ED950FB0FE96E8A
:10166000FF0EDA20EA6EEECF21F0EECF22F0EECFC1
:1016700023F0EFCF24F000C026F001C027F002C015
:1016800028F003C029F0BBEC1CF024C0EDFF23C000
:10169000EDFF22C0EDFF21C0EFFFACD7FB0EDBCF8B
:1016A00000F0FC0EDBCF01F0FD0EDBCF02F0FE0EF2
:1016B000DBCF03F0266A400E276E1C0E286E460E06
:1016C000296E00C021F001C022F002C023F003C047
:1016D00024F04AEC1EF0010A35E0040EE76EF90E24
:1016E000DBCFE9FFFA0EDBCFEAFFE750E926000E79
:1016F000EA22EF2A006A400E016E1C0E026E460EB0
:10170000036ED950FB0FE96EFF0EDA20EA6EEECFC2
:1017100021F0EECF22F0EECF23F0EFCF24F000C087
:1017200026F001C027F002C028F003C029F0BBEC6E
:101730001CF024C0EDFF23C0EDFF22C0EDFF21C04F
:10174000EFFFACD7FB0EDBCF00F0FC0EDBCF01F0E0
:10175000FD0EDBCF02F0FE0EDBCF03F0266A276A18
:101760007A0E286E440E296E00C021F001C022F0CE
:1017700002C023F003C024F04AEC1EF0010A34E05A
:10178000030EE76EF90EDBCFE9FFFA0EDBCFEAFFBF
:10179000E750E926000EEA22EF2A006A016A7A0E73
:1017A000026E440E036ED950FB0FE96EFF0EDA2075
:1017B000EA6EEECF21F0EECF22F0EECF23F0EFCFA6
:1017C00024F000C026F001C027F002C028F003C0BA
:1017D00029F0BBEC1CF024C0EDFF23C0EDFF22C0BC
:1017E000EDFF21C0EFFFAED7FB0EDBCF00F0FC0E0C
:1017F000DBCF01F0FD0EDBCF02F0FE0EDBCF03F0FE
:10180000266A276AC80E286E420E296E00C021F093
:1018100001C022F002C023F003C024F04AEC1EF005
:10182000010A34E0020EE76EF90EDBCFE9FFFA0E93
:10183000DBCFEAFFE750E926000EEA22EF2A006A32
:10184000016AC80E026E420E036ED950FB0FE96E9C
:10185000FF0EDA20EA6EEECF21F0EECF22F0EECFCF
:1018600023F0EFCF24F000C026F001C027F002C023
:1018700028F003C029F0BBEC1CF024C0EDFF23C00E
:10188000EDFF22C0EDFF21C0EFFFAED7FB0EDBCF97
:1018900000F0FC0EDBCF01F0FD0EDBCF02F0FE0E00
:1018A000DBCF03F0266A276A200E286E410E296ED0
:1018B00000C021F001C022F002C023F003C024F0D8
:1018C0004AEC1EF0010A34E0010EE76EF90EDBCFA0
:1018D000E9FFFA0EDBCFEAFFE750E926000EEA2225
:1018E000EF2A006A016A200E026E410E036ED95083
:1018F000FB0FE96EFF0EDA20EA6EEECF21F0EECF9D
:1019000022F0EECF23F0EFCF24F000C026F001C08C
:1019100027F002C028F003C029F0BBEC1CF024C063
:10192000EDFF23C0EDFF22C0EDFF21C0EFFFAED7DA
:10193000FB0EDBCF00F0FC0EDBCF01F0FD0EDBCFAA
:1019400002F0FE0EDBCF03F0266A276A800E286EB7
:101950003F0E296E00C021F001C022F002C023F02A
:1019600003C024F04AEC1EF0010A2EE0F90EDBCF92
:10197000E9FFFA0EDBCFEAFFEF2A006A016A800E68
:10198000026E3F0E036ED950FB0FE96EFF0EDA2098
:10199000EA6EEECF21F0EECF22F0EECF23F0EFCFC4
:1019A00024F000C026F001C027F002C028F003C0D8
:1019B00029F0BBEC1CF024C0EDFF23C0EDFF22C0DA
:1019C000EDFF21C0EFFFB4D7FB0EDBCF00F0FC0E24
:1019D000DBCF01F0FD0EDBCF02F0FE0EDBCF03F01C
:1019E000CD0E266ECC0E276E286E3D0E296E00C0E1
:1019F00021F001C022F002C023F003C024F04AEC21
:101A00001EF0010A2FE0F70EDBCFE9FFF80EDBCF67
:101A1000EAFFEF2ACD0E006ECC0E016E026E3D0E77
:101A2000036ED950FB0FE96EFF0EDA20EA6EEECF9F
:101A300021F0EECF22F0EECF23F0EFCF24F000C064
:101A400026F001C027F002C028F003C029F0BBEC4B
:101A50001CF024C0EDFF23C0EDFF22C0EDFF21C02C
:101A6000EFFFB2D7FB0EDBCF00F0FC0EDBCF01F0B7
:101A7000FD0EDBCF02F0FE0EDBCF03F00A0E266E6A
:101A8000D70E276E230E286E3C0E296E00C021F063
:101A900001C022F002C023F003C024F04AEC1EF083
:101AA000010A36E0010EE76EF70EDBCFE9FFF80E14
:101AB000DBCFEAFFE750E926000EEA22EF2A0A0E02
:101AC000006ED70E016E230E026E3C0E036ED950CF
:101AD000FB0FE96EFF0EDA20EA6EEECF21F0EECFBB
:101AE00022F0EECF23F0EFCF24F000C026F001C0AB
:101AF00027F002C028F003C029F0BBEC1CF024C082
:101B0000EDFF23C0EDFF22C0EDFF21C0EFFFAAD7FC
:101B1000FB0EDBCF00F0FC0EDBCF01F0FD0EDBCFC8
:101B200002F0FE0EDBCF03F06F0E266E120E276E54
:101B3000830E286E3A0E296E00C021F001C022F0FB
:101B400002C023F003C024F04AEC1EF0010A36E084
:101B5000020EE76EF70EDBCFE9FFF80EDBCFEAFFF0
:101B6000E750E926000EEA22EF2A6F0E006E120EF1
:101B7000016E830E026E3A0E036ED950FB0FE96EB2
:101B8000FF0EDA20EA6EEECF21F0EECF22F0EECF9C
:101B900023F0EFCF24F000C026F001C027F002C0F0
:101BA00028F003C029F0BBEC1CF024C0EDFF23C0DB
:101BB000EDFF22C0EDFF21C0EFFFAAD7FB0EDBCF68
:101BC00000F0FC0EDBCF01F0FD0EDBCF02F0FE0ECD
:101BD000DBCF03F0170E266EB70E276ED10E286EE0
:101BE000380E296E00C021F001C022F002C023F09F
:101BF00003C024F04AEC1EF0010A36E0030EE76E43
:101C0000F70EDBCFE9FFF80EDBCFEAFFE750E9265E
:101C1000000EEA22EF2A170E006EB70E016ED10EEB
:101C2000026E380E036ED950FB0FE96EFF0EDA20FC
:101C3000EA6EEECF21F0EECF22F0EECF23F0EFCF21
:101C400024F000C026F001C027F002C028F003C035
:101C500029F0BBEC1CF024C0EDFF23C0EDFF22C037
:101C6000EDFF21C0EFFFAAD7FB0EDBCF00F0FC0E8B
:101C7000DBCF01F0FD0EDBCF02F0FE0EDBCF03F079
:101C8000AC0E266EC50E276E270E286E370E296EF7
:101C900000C021F001C022F002C023F003C024F0F4
:101CA0004AEC1EF0010A36E0040EE76EF70EDBCFB9
:101CB000E9FFF80EDBCFEAFFE750E926000EEA2243
:101CC000EF2AAC0E006EC50E016E270E026E370EA7
:101CD000036ED950FB0FE96EFF0EDA20EA6EEECFED
:101CE00021F0EECF22F0EECF23F0EFCF24F000C0B2
:101CF00026F001C027F002C028F003C029F0BBEC99
:101D00001CF024C0EDFF23C0EDFF22C0EDFF21C079
:101D1000EFFFAAD7E552E7CFD9FF1200D9CFE6FFF0
:101D2000E1CFD9FFFC0EDBCFE9FFFD0EDBCFEAFFF1
:101D3000EF6A010EE76EFC0EDBCFE9FFFD0EDBCF95
:101D4000EAFFE750E926000EEA22EF6A100EF36E72
:101D5000FE0EDBCFF4FFF350F45C18E3010EE76EE8
:101D6000FC0EDBCFE9FFFD0EDBCFEAFFE750E926F3
:101D7000000EEA22EF2A100E006EFE0EDBCFE7FF08
:101D80000050E75EFE0EE7CFDBFFE0D7FC0EDBCFB7
:101D9000E9FFFD0EDBCFEAFFFE0EDBCFEFFFE552E2
:101DA000E7CFD9FF1200D9CFE6FFE1CFD9FFFB0E75
:101DB000DBCFE9FFFC0EDBCFEAFFEF6A010EE76E37
:101DC000FB0EDBCFE9FFFC0EDBCFEAFFE750E92695
:101DD000000EEA22EF6A020EE76EFB0EDBCFE9FF90
:101DE000FC0EDBCFEAFFE750E926000EEA22EF6A9D
:101DF000030EE76EFB0EDBCFE9FFFC0EDBCFEAFF45
:101E0000E750E926000EEA22EF6AFD0EDBCF00F074
:101E1000FE0EDBCF01F0000E005C100E015817E340
:101E2000030EE76EFB0EDBCFE9FFFC0EDBCFEAFF14
:101E3000E750E926000EEA22EF2AD950FD0FE96E9D
:101E4000FF0EDA20EA6EEE52100EED5EDED7FD0ECA
:101E5000DBCF00F0FE0EDBCF01F0000E005C010EC8
:101E6000015816E3020EE76EFB0EDBCFE9FFFC0E16
:101E7000DBCFEAFFE750E926000EEA22EF2AD9502D
:101E8000FD0FE96EFF0EDA20EA6EEE52ED06DFD7A7
:101E9000FD0EDBCF00F0FE0EDBCF01F0100E005C7C
:101EA000000E015818E3010EE76EFB0EDBCFE9FFD1
:101EB000FC0EDBCFEAFFE750E926000EEA22EF2A0C
:101EC000D950FD0FE96EFF0EDA20EA6E100EEE5EBD
:101ED000000EED5ADDD7FB0EDBCFE9FFFC0EDBCFAA
:101EE000EAFFFD0EDBCFEFFFE552E7CFD9FF12008F
:101EF000D9CFE6FFE1CFD9FFF90EDBCFE9FFFA0E2C
:101F0000DBCFEAFFEF6A010EE76EF90EDBCFE9FFE8
:101F1000FA0EDBCFEAFFE750E926000EEA22EF6A6D
:101F2000020EE76EF90EDBCFE9FFFA0EDBCFEAFF18
:101F3000E750E926000EEA22EF6A030EE76EF90E7B
:101F4000DBCFE9FFFA0EDBCFEAFFE750E926000E10
:101F5000EA22EF6A040EE76EF90EDBCFE9FFFA0E14
:101F6000DBCFEAFFE750E926000EEA22EF6A050E12
:101F7000E76EF90EDBCFE9FFFA0EDBCFEAFFE750A1
:101F8000E926000EEA22EF6A060EE76EF90EDBCFB5
:101F9000E9FFFA0EDBCFEAFFE750E926000EEA225E
:101FA000EF6A070EE76EF90EDBCFE9FFFA0EDBCF23
:101FB000EAFFE750E926000EEA22EF6AD950FB0F4C
:101FC000E96EFF0EDA20EA6E000EEE5C000EEE58AF
:101FD000000EEE58000EEE580EE3030EE76EF90EFB
:101FE000DBCFE9FFFA0EDBCFEAFFE750E926000E70
:101FF000EA22EF2AE3D7D950FB0FE96EFF0EDA2071
:10200000EA6E000EEE5C000EEE58000EEE58000E6A
:10201000EE580EE3020EE76EF90EDBCFE9FFFA0E83
:10202000DBCFEAFFE750E926000EEA22EF2AE3D7EA
:10203000D950FB0FE96EFF0EDA20EA6E100EEE5C4F
:10204000000EEE58000EEE58000EEE581AE3010E88
:10205000E76EF90EDBCFE9FFFA0EDBCFEAFFE750C0
:10206000E926000EEA22EF2AD950FB0FE96EFF0E97
:10207000DA20EA6E100EEE5E000EEE5AEE5AEE5ABE
:10208000D7D7F90EDBCFE9FFFA0EDBCFEAFFFB0E65
:10209000DBCFEFFFE552E7CFD9FF1200D9CFE6FF44
:1020A000E1CFD9FF0A0E026E02C028F0FE0EDBCF90
:1020B00023F0B7EC29F01FC001F00A0E006E00C03B
:1020C00028F0FE0EDBCF23F0B7EC29F02338F00B1D
:1020D0000124E66EFC0EDBCFE9FFFD0EDBCFEAFF4D
:1020E000E552E750EF6EE552E7CFD9FF1200D9CFA6
:1020F000E6FFE1CFD9FFFE0EDB380F0B0F0B0A0D09
:10210000F3CF00F0FE0EDB500F0B0024E66EFC0E4A
:10211000DBCFE9FFFD0EDBCFEAFFE552E750EF6EC4
:10212000E552E7CFD9FF1200D9CFE6FFE1CFD9FFC3
:10213000E652FE0EDB04DF6EDF1CE66EFC0EDBCF2C
:10214000E9FFFD0EDBCFEAFFE552E750EF6EE55207
:10215000E552E7CFD9FF1200D9CFE6FFE1CFD9FF93
:10216000020EE126FD0EDBCF00F0FE0EDBCF01F00C
:102170000006000E015A00C0DEFF01C0DDFFDECF09
:1021800000F0DDCF01F0001E011EFB0EDBCFE9FFEA
:10219000FC0EDBCFEAFF00C0EEFF01C0EDFF020E38
:1021A000E15C02E2E16AE552E16EE552E7CFD9FF78
:1021B0001200D9CFE6FFE1CFD9FF040EE126FB0ED6
:1021C000DBCF00F0FC0EDBCF01F0FD0EDBCF02F029
:1021D000FE0EDBCF03F00006000E015A025A035A2E
:1021E00000C0DFFF010E01C0DBFF020E02C0DBFFFB
:1021F000030E03C0DBFFD9CFE9FFDACFEAFFEECF52
:1022000000F0EECF01F0EECF02F0EFCF03F0001EB2
:10221000011E021E031EF90EDBCFE9FFFA0EDBCF13
:10222000EAFF00C0EEFF01C0EEFF02C0EEFF03C0F8
:10223000EEFF040EE15C02E2E16AE552E16EE55276
:10224000E7CFD9FF1200D9CFE6FFE1CFD9FF080EC3
:10225000E126FD0EDBCFE9FFFE0EDBCFEAFF040E29
:10226000EECFDBFF050EEECFDBFF060EEECFDBFF82
:10227000070EEECFDBFF010EDE6EDE6ADE6ADD6A80
:10228000DD52DD52F90EDBCF00F0FA0EDBCF01F0AC
:10229000FB0EDBCF02F0FC0EDBCF03F0D9CFE9FF62
:1022A000DACFEAFF0050EE5C0150EE580250EE58D3
:1022B0000350EE5864E2040EDBCF00F0050EDBCFD6
:1022C00001F0060EDBCF02F0070EDBCF03F0DFCF0D
:1022D00008F0010EDBCF09F0D89008360936D89007
:1022E00008360936FD0EDB500824E96EFE0EDB5081
:1022F0000920EA6EEECF04F0EECF05F0EECF06F047
:10230000EFCF07F004C026F005C027F006C028F084
:1023100007C029F000C021F001C022F002C023F064
:1023200003C024F041EC1EF0010A1FE1DFCF00F0F2
:10233000010EDBCF01F0D89000360136D890003680
:102340000136FD0EDB500024E96EFE0EDB5001204D
:10235000EA6E040EEECFDBFF050EEECFDBFF060EBE
:10236000EECFDBFF070EEECFDBFFD9CFE9FFDACFF1
:10237000EAFFEE2A000EEE22EE22EE2283D7040EB2
:10238000DBCF00F0050EDBCF01F0060EDBCF02F055
:10239000070EDBCF03F000C020F001C021F002C027
:1023A00022F003C023F0080EE15C03E200D0E16AF2
:1023B000E552E16EE552E7CFD9FF1200D9CFE6FF33
:1023C000E1CFD9FF080EE126FD0EDBCFE9FFFE0EBF
:1023D000DBCFEAFF040EEECFDBFF050EEECFDBFF17
:1023E000060EEECFDBFF070EEECFDBFF010EDE6E3B
:1023F000DE6ADE6ADD6ADD52DD52F90EDBCF00F007
:10240000FA0EDBCF01F0FB0EDBCF02F0FC0EDBCFD0
:1024100003F0D9CFE9FFDACFEAFF0050EE5C0150BC
:10242000EE580250EE580350EE5864E2040EDBCF33
:1024300000F0050EDBCF01F0060EDBCF02F0070E39
:10244000DBCF03F0DFCF08F0010EDBCF09F0D8902F
:1024500008360936D89008360936FD0EDB500824B8
:10246000E96EFE0EDB500920EA6EEECF04F0EECFEF
:1024700005F0EECF06F0EFCF07F004C026F005C060
:1024800027F006C028F007C029F000C021F001C0E5
:1024900022F002C023F003C024F04AEC1EF0010A2F
:1024A0001FE1DFCF00F0010EDBCF01F0D890003646
:1024B0000136D89000360136FD0EDB500024E96E5F
:1024C000FE0EDB500120EA6E040EEECFDBFF050EA0
:1024D000EECFDBFF060EEECFDBFF070EEECFDBFF0E
:1024E000D9CFE9FFDACFEAFFEE2A000EEE22EE2284
:1024F000EE2283D7040EDBCF00F0050EDBCF01F018
:10250000060EDBCF02F0070EDBCF03F000C020F099
:1025100001C021F002C022F003C023F0080EE15CEC
:1025200003E200D0E16AE552E16EE552E7CFD9FF60
:102530001200D9CFE6FFE1CFD9FF080EE126040E45
:10254000DB6A050EDB6A060EDB6A070EDB6ADE6AF3
:10255000DE6ADE6ADD6ADD52DD52F90EDBCF00F0A5
:10256000FA0EDBCF01F0FB0EDBCF02F0FC0EDBCF6F
:1025700003F0D9CFE9FFDACFEAFF0050EE5C01505B
:10258000EE580250EE580350EE5844E2DFCF04F00C
:10259000010EDBCF05F0D89004360536D89004360E
:1025A0000536FD0EDB500424E96EFE0EDB500520DF
:1025B000EA6EEECF00F0EECF01F0EECF02F0EFCFFB
:1025C00003F0D950040FE96EDACFEAFFEECF21F025
:1025D000EECF22F0EECF23F0EFCF24F000C026F0B4
:1025E00001C027F002C028F003C029F0BCEC1CF0A9
:1025F00024C0EDFF23C0EDFF22C0EDFF21C0EFFF9F
:10260000D9CFE9FFDACFEAFFEE2A000EEE22EE2262
:10261000EE22A3D7F90EDBCF04F0FA0EDBCF05F0E4
:10262000FB0EDBCF06F0FC0EDBCF07F004C020F082
:1026300005C021F006C022F007C023F0A0EC1CF07A
:1026400021C000F022C001F023C002F024C003F03A
:10265000D950040FE96EDACFEAFFEECF21F0EECFCA
:1026600022F0EECF23F0EFCF24F000C026F001C01F
:1026700027F002C028F003C029F052EC1DF024C05E
:10268000EDFF23C0EDFF22C0EDFF21C0EFFF040EE0
:10269000DBCF00F0050EDBCF01F0060EDBCF02F042
:1026A000070EDBCF03F000C020F001C021F002C014
:1026B00022F003C023F0080EE15C03E200D0E16ADF
:1026C000E552E16EE552E7CFD9FF1200D9CFE6FF20
:1026D000E1CFD9FF040EE126DE6ADE6ADE6ADD6A3A
:1026E000DD52DD52D9CFE9FFDACFEAFF020EEE5C10
:1026F000000EEE58000EEE58000EEE581AE2DFCF34
:1027000000F0010EDBCF01F0FD0EDB500024E96E7E
:10271000FE0EDB500120EA6EFC0EDBCFEFFFD9CFBF
:10272000E9FFDACFEAFFEE2A000EEE22EE22EE22D9
:10273000D9D7040EE15C02E2E16AE552E16EE552AE
:10274000E7CFD9FF1200D9CFE6FFE1CFD9FFE6529C
:10275000DF6AFA0EDB50DF5C1BE2FD0EDBCFE9FF28
:10276000DB2AFE0EDBCFEAFF01E3DB2AEFCF00F02E
:10277000FB0EDBCFE9FFDB2AFC0EDBCFEAFF01E338
:10278000DB2AEF50005C02E0010E04D0DF2AE1D723
:0E279000000E00D0E552E552E7CFD9FF12004F
:02279E00D9CF91
:1027A000E6FFE1CFD9FF040EE126800E086E960EFB
:1027B000096E980E0A6E4B0E0B6E106A116A800E2F
:1027C000126E410E136EFB0EDBCF18F0FC0EDBCF4A
:1027D00019F0FD0EDBCF1AF0FE0EDBCF1BF018C098
:1027E00020F019C021F01AC022F01BC023F0A0EC89
:1027F0001CF021C014F022C015F023C016F024C034
:1028000017F014C026F015C027F016C028F017C026
:1028100029F010C021F011C022F012C023F013C023
:1028200024F0A5EC1DF021C00CF022C00DF023C057
:102830000EF024C00FF00CC026F00DC027F00EC023
:1028400028F00FC029F008C021F009C022F00AC00A
:1028500023F00BC024F052EC1DF021C004F022C084
:1028600005F023C006F024C007F0266A276A800E10
:10287000286E3F0E296E04C021F005C022F006C06C
:1028800023F007C024F0BBEC1CF021C000F022C0F4
:1028900001F023C002F024C003F000C0E6FF01C035
:1028A000E6FF02C0E6FF03C0E6FFE6EC27F0E552D4
:1028B000E552E552E55220C0DEFF21C0DEFF22C016
:1028C000DEFF23C0DDFFDD52DD52DECF21F0DECFA3
:1028D00022F0DECF23F0DDCF24F0DD52DD5212EC0A
:1028E0001EF02250AF6EAC84AC8AAB8EAB88948E57
:1028F000949C1E0EE66EE66AA1EC28F0E552E552C5
:10290000000E006E040EE15C03E200D0E16AE552C5
:10291000E16E0050E552E7CFD9FF12009E9AAE500B
:1029200000D01200D9CFE6FFE1CFD9FFACA2FED78D
:10293000FE0EDB50AD6E000E00D0E552E7CFD9FFA2
:102940001200D9CFE6FFE1CFD9FFFD0EDBCFF6FFB6
:10295000FE0EDBCFF7FF0800F55015E0ACA2FED766
:10296000FD0EDBCFF6FFFE0EDBCFF7FF0800F550C4
:10297000AD6EFD0EDBCFF6FFDB2AFE0EDBCFF7FFE1
:1029800001E3DB2AE2D7000E00D0E552E7CFD9FF02
:102990001200D9CFE6FFE1CFD9FF050EE126D9CF4E
:1029A000E6FFDACFE6FFFE0EDBCFE6FFE66A64EC79
:1029B00000F0E552E552E552E552020EDB50300FD1
:1029C000E66EB0DFE552010EDB50300FE66EAADF97
:1029D000E552300EDF24E66EA5DFE552200EE66EEE
:1029E000A1DFE552000E006E050EE15C03E200D0AF
:1029F000E16AE552E16E0050E552E7CFD9FF1200DF
:102A0000D9CFE6FFE1CFD9FF020EE126D9CFE6FF0D
:102A1000DACFE6FFFE0EDBCFE6FF8EEC0EF0E552DE
:102A2000E552E552FD0EDB50010B010808E1300EC6
:102A3000E66E78DFE552780EE66E74DFE5520A0E38
:102A4000F36E010EDBCFF4FFF350F45C07E2010EEE
:102A5000DB50300FE66E66DFE55206D0010EDB502C
:102A6000370FE66E5FDFE5520A0EDF5C06E2300EDE
:102A7000DF24E66E57DFE55205D0370EDF24E66E21
:102A800051DFE552FD0EDB50020B020805E10A0E94
:102A9000E66E48DFE55204D0200EE66E43DFE552D5
:102AA000000E006E020EE15C03E200D0E16AE55226
:102AB000E16E0050E552E7CFD9FF1200D9CFE6FF13
:102AC000E1CFD9FF050EE126D9CFE6FFDACFE6FF49
:102AD000FE0EDBCFE6FFE66A64EC00F0E552E5525D
:102AE000E552E552020EDB50300FE66E1BDFE55279
:102AF000010EDB50300FE66E15DFE552300EDF249D
:102B0000E66E10DFE552200EE66E0CDFE552000E99
:102B1000006E050EE15C03E200D0E16AE552E16E71
:102B20000050E552E7CFD9FF1200D9CFE6FFE1CF41
:102B3000D9FF040EE126D9CFE6FFDACFE6FFFD0E7E
:102B4000DBCFE6FFFE0EDBCFE6FFD3EC0EF0E55267
:102B5000E552E552E552FC0EDB50010B010808E19D
:102B6000300EE66EDFDEE552780EE66EDBDEE55215
:102B70000A0EF36E030EDBCFF4FFF350F45C07E2B2
:102B8000030EDB50300FE66ECDDEE55206D0030EAD
:102B9000DB50370FE66EC6DEE5520A0EF36E020E0C
:102BA000DBCFF4FFF350F45C07E2020EDB50300F92
:102BB000E66EB8DEE55206D0020EDB50370FE66E49
:102BC000B1DEE5520A0EF36E010EDBCFF4FFF350D7
:102BD000F45C07E2010EDB50300FE66EA3DEE55237
:102BE00006D0010EDB50370FE66E9CDEE5520A0E72
:102BF000DF5C06E2300EDF24E66E94DEE55205D09F
:102C0000370EDF24E66E8EDEE552FC0EDB50020B43
:102C1000020805E10A0EE66E85DEE55204D0200EBC
:102C2000E66E80DEE552000E006E040EE15C03E20B
:102C300000D0E16AE552E16E0050E552E7CFD9FFDE
:102C40001200D9CFE6FFE1CFD9FF050EE126D9CF9B
:102C5000E6FFDACFE6FFFD0EDBCFE6FFFE0EDBCFB1
:102C6000E6FF64EC00F0E552E552E552E552040E51
:102C7000DB50300FE66E56DEE552030EDB50300FB0
:102C8000E66E50DEE552020EDB50300FE66E4ADE95
:102C9000E552010EDB50300FE66E44DEE552300E99
:102CA000DF24E66E3FDEE552200EE66E3BDEE552A7
:102CB000000E006E050EE15C03E200D0E16AE55211
:102CC000E16E0050E552E7CFD9FF1200D9CFE6FF01
:102CD000E1CFD9FF080EE126D9CFE6FFDACFE6FF34
:102CE000D950FB0FE96EFF0EDA20EA6EEECFE6FF59
:102CF000EECFE6FFEECFE6FFEFCFE6FF78EC0FF08A
:102D0000006E060EE15E0050FA0EDB50010B01086A
:102D100008E1300EE66E06DEE552780EE66E02DE63
:102D2000E5520A0EF36E070EDBCFF4FFF350F45CAE
:102D300007E2070EDB50300FE66EF4DDE55206D0F9
:102D4000070EDB50370FE66EEDDDE5520A0EF36E2F
:102D5000060EDBCFF4FFF350F45C07E2060EDB5007
:102D6000300FE66EDFDDE55206D0060EDB50370F82
:102D7000E66ED8DDE5520A0EF36E050EDBCFF4FFEA
:102D8000F350F45C07E2050EDB50300FE66ECADD4F
:102D9000E55206D0050EDB50370FE66EC3DDE55277
:102DA0000A0EF36E040EDBCFF4FFF350F45C07E27F
:102DB000040EDB50300FE66EB5DDE55206D0040E92
:102DC000DB50370FE66EAEDDE5520A0EF36E030EF2
:102DD000DBCFF4FFF350F45C07E2030EDB50300F5F
:102DE000E66EA0DDE55206D0030EDB50370FE66E2F
:102DF00099DDE5520A0EF36E020EDBCFF4FFF350BD
:102E0000F45C07E2020EDB50300FE66E8BDDE5521C
:102E100006D0020EDB50370FE66E84DDE5520A0E57
:102E2000F36E010EDBCFF4FFF350F45C07E2010E0A
:102E3000DB50300FE66E76DDE55206D0010EDB503A
:102E4000370FE66E6FDDE5520A0EDF5C06E2300EEC
:102E5000DF24E66E67DDE55205D0370EDF24E66E2F
:102E600061DDE552FA0EDB50020B020805E10A0EA5
:102E7000E66E58DDE5520ED0FA0EDB50040B040866
:102E800005E1200EE66E4EDDE55204D0200EE66E22
:102E900049DDE552000E006E080EE15C03E200D051
:102EA000E16AE552E16E0050E552E7CFD9FF12002A
:102EB000D9CFE6FFE1CFD9FF0A0EE126D9CFE6FF51
:102EC000DACFE6FFD950FB0FE96EFF0EDA20EA6E8B
:102ED000EECFE6FFEECFE6FFEECFE6FFEFCFE6FF69
:102EE0003CEC01F0006E060EE15E0050090EDB5076
:102EF000300FE66E17DDE552080EDB50300FE66E40
:102F000011DDE552070EDB50300FE66E0BDDE552AA
:102F1000060EDB50300FE66E05DDE552050EDB5088
:102F2000300FE66EFFDCE552040EDB50300FE66E2C
:102F3000F9DCE552030EDB50300FE66EF3DCE552B0
:102F4000020EDB50300FE66EEDDCE552010EDB5079
:102F5000300FE66EE7DCE552300EDF24E66EE2DC91
:102F6000E552200EE66EDEDCE552000E006E0A0E23
:102F7000E15C03E200D0E16AE552E16E0050E55207
:102F8000E7CFD9FF1200D9CFE6FFE1CFD9FF130E6B
:102F9000E126D950050FE96EDACFEAFF840EEE6E16
:102FA000520EED6ED950070FE96EDACFEAFF7C0EB4
:102FB000EE6E520EED6ED950090FE96EDACFEAFFD0
:102FC000720EEE6E520EED6ED9500B0FE96EDACF27
:102FD000EAFF690EEE6E520EED6ED9500D0FE96EDE
:102FE000DACFEAFF620EEE6E520EED6ED9500F0F81
:102FF000E96EDACFEAFF590EEE6E520EED6ED95041
:10300000110FE96EDACFEAFF520EEE6E520EED6E40
:10301000D9CFE6FFDACFE6FFFB0EDBCFE6FFE66AAD
:1030200064EC00F0E552E552E552E552DF50070846
:1030300003E3010EDF5C02E2010EDF6ED950050FE3
:10304000006EDACF01F0DF04020D0050F324E96EC8
:103050000150F420EA6EEECFE6FFEFCFE6FF71DC21
:10306000E552E552200EE66E5DDCE552D9CFE6FF73
:10307000DACFE6FFFC0EDBCFE6FFE66A64EC00F099
:10308000E552E552E552E552010EDB50300FE66E97
:1030900049DCE552300EDF24E66E44DCE5522F0EAB
:1030A000E66E40DCE552D9CFE6FFDACFE6FFFD0E53
:1030B000DBCFE6FFE66A64EC00F0E552E552E5524C
:1030C000E552010EDB50300FE66E2CDCE552300E7F
:1030D000DF24E66E27DCE5522F0EE66E23DCE55298
:1030E000D9CFE6FFDACFE6FFFE0EDBCFE6FFE66ADA
:1030F00064EC00F0E552E552E552E552010EDB507A
:10310000300FE66E0FDCE552300EDF24E66E0ADC8F
:10311000E552200EE66E06DCE552D9CFE6FFDACFA7
:10312000E6FFF80EDBCFE6FFE66A64EC00F0E5525E
:10313000E552E552E552010EDB50300FE66E92EC9F
:1031400014F0E552300EDF24E66E92EC14F0E552F6
:103150003A0EE66E92EC14F0E552D9CFE6FFDACFE4
:10316000E6FFF90EDBCFE6FFE66A64EC00F0E5521D
:10317000E552E552E552010EDB50300FE66E92EC5F
:1031800014F0E552300EDF24E66E92EC14F0E552B6
:103190003A0EE66E92EC14F0E552D9CFE6FFDACFA4
:1031A000E6FFFA0EDBCFE6FFE66A64EC00F0E552DC
:1031B000E552E552E552010EDB50300FE66E92EC1F
:1031C00014F0E552300EDF24E66E92EC14F0E55276
:1031D0000A0EE66E92EC14F0E552000E006E130E2D
:1031E000E15C03E200D0E16AE552E16E0050E55295
:1031F000E7CFD9FF1200D9CFE6FFE1CFD9FF050E07
:10320000E126D9CFE6FFDACFE6FFFD0EDBCFE9FFFF
:10321000FE0EDBCFEAFFEF50E66EE66A64EC00F0EC
:10322000E552E552E552E552010EDB50300FE66EF5
:1032300092EC14F0E552300EDF24E66E92EC14F0BE
:10324000E5522C0EE66E92EC14F0E552010EE76E9C
:10325000FD0EDBCFE9FFFE0EDBCFEAFFE750E926EC
:10326000000EEA22EF5006E1300EE66E92EC14F00A
:10327000E55205D0350EE66E92EC14F0E552B00E34
:10328000E66E92EC14F0E552430EE66E92EC14F00A
:10329000E552200EE66E92EC14F0E552000E006E40
:1032A000050EE15C03E200D0E16AE552E16E0050F8
:0832B000E552E7CFD9FF12003F
:0832B800DACFE4FFE2CFDAFFF8
:1032C000E652CA9400000000000000000000000068
:1032D00000000000000000000000000000000000EE
:1032E00000000000000000000000000000000000DE
:1032F00000000000000000000000000000000000CE
:10330000000000009E92CA840001932B640E00010D
:10331000935D01E2D0D0807200018C2B0001936B91
:1033200000018B51010B08E08282828400000000C2
:1033300000008294829206D0829282840000000073
:10334000000082943C0E00018C5D04E300018C6B54
:1033500000018B2B3C0E00018B5D04E300018B6BA5
:1033600000018A2B180E00018A5D04E300018A6BBC
:1033700000018E2B00018F510C0A01E191D0070A48
:1033800001E183D0010A76E0030A69E0010A5CE00A
:103390000F0A4FE0010A42E0030A35E0010A28E083
:1033A000070A1BE0010A0EE0030A01E084D0200EA8
:1033B00000018E5D06E30001010E8E6F0001020E1A
:1033C0008F6F79D01D0E00018E5D06E30001010EA6
:1033D0008E6F0001030E8F6F6ED0200E00018E5D88
:1033E00006E30001010E8E6F0001040E8F6F63D0A3
:1033F0001F0E00018E5D06E30001010E8E6F0001BD
:10340000050E8F6F58D0200E00018E5D06E300017F
:10341000010E8E6F0001060E8F6F4DD01F0E000142
:103420008E5D06E30001010E8E6F0001070E8F6FA7
:1034300042D0200E00018E5D06E30001010E8E6F6A
:103440000001080E8F6F37D0200E00018E5D06E35D
:103450000001010E8E6F0001090E8F6F2CD01F0E20
:1034600000018E5D06E30001010E8E6F00010A0E61
:103470008F6F21D0200E00018E5D06E30001010E4A
:103480008E6F00010B0E8F6F16D01F0E00018E5D28
:1034900006E30001010E8E6F00010C0E8F6F0BD042
:1034A000200E00018E5D06E30001010E8E6F00010B
:1034B000010E8F6F00D00000E552E5CFDAFF11005A
:1034C000D9CFE6FFE1CFD9FF1C0EE126DF6A010E5E
:1034D000DB6A0B0EDB6A010EF36E0C0EF3CFDBFF23
:1034E000020EF36E0D0EF3CFDBFF030EF36E0E0E26
:1034F000F3CFDBFF040EF36E0F0EF3CFDBFF3F0EB7
:10350000F36E100EF3CFDBFF060EF36E110EF3CF4A
:10351000DBFF5B0EF36E120EF3CFDBFF4F0EF36E8D
:10352000130EF3CFDBFF660EF36E140EF3CFDBFF4B
:103530006D0EF36E150EF3CFDBFF7D0EF36E160EE0
:10354000F3CFDBFF070EF36E170EF3CFDBFF7F0E1B
:10355000F36E180EF3CFDBFF6F0EF36E190EF3CF81
:10356000DBFF630EF36E1A0EF3CFDBFF1B0EDB6A7D
:10357000380E926E936A180E946E070EC16EE20EAC
:10358000CB6ECA8CCA9ACA88CA96CA82CA80CA84B2
:103590009D82D08EF28E828000018C6B060E8B6F26
:1035A000160E8A6F0001010E926FB4D980BA3AD01C
:1035B000C80EE66EE66AA1EC28F0E552E5520B0E65
:1035C000DB5008E10001010E926FF36E0B0EF3CF9A
:1035D000DBFF28D00B0EDB0409E10001010E926F26
:1035E000020EF36E0B0EF3CFDBFF1CD00B0EDB5085
:1035F000020809E10001010E926F030EF36E0B0E3B
:10360000F3CFDBFF0FD00B0EDB50030809E1000105
:10361000010E926F040EF36E0B0EF3CFDBFF02D0A0
:103620000B0EDB6A80B644D0C80EE66EE66AA1ECEB
:1036300028F0E552E5520B0EDB50040A2EE0070A93
:1036400021E0010A11E0030A01E032D000018E07F7
:10365000010E8E5D05E28E511F0802E21F0E8E6F75
:103660000001010E916F24D000018F07010E8F5DC4
:1036700005E28F510C0802E20C0E8F6F0001010E63
:10368000916F16D000018B078B513B0802E23B0E75
:103690008B6F0001030E916F0BD000018A078A51D6
:1036A000170802E2170E8A6F0001030E916F00D017
:1036B00080B83CD0C80EE66EE66AA1EC28F0E55270
:1036C000E5520B0EDB50040A27E0070A1BE0010A53
:1036D0000EE0030A01E02AD000018E2B1F0E8E5D42
:1036E00002E3010E8E6F0001010E916F1FD00001E9
:1036F0008F2B0D0E8F5D02E3010E8F6F0001010E07
:10370000916F14D000018B2B3C0E8B5D01E38B6B12
:103710000001030E916F0AD000018A2B180E8A5DFA
:1037200001E38A6B0001030E916F00D0D950020FA4
:10373000E66E000EDA20E66E00018A51E66EE66A59
:1037400064EC00F0E552E552E552E552030EDB5021
:10375000E76E0C0EE7CFDBFF020EDB50E76E0D0EBF
:10376000E7CFDBFFD950020FE66E000EDA20E66EDF
:1037700000018B51E66EE66A64EC00F0E552E5521A
:10378000E552E552030EDB50E76E0E0EE7CFDBFF8E
:10379000020EDB50E76E0F0EE7CFDBFF0B0EDB50A8
:1037A00004E00B0EDB50040835E1D950100F006E19
:1037B000DACF01F00C0EDB500F010024E96E000E91
:1037C0000120EA6EEF508A6E828A829C829E819EE0
:1037D000020EE66EE66AA1EC28F0E552E552D950F9
:1037E000100F006EDACF01F00D0EDB500F01002438
:1037F000E96E000E0120EA6EEF508A6E829A828C8A
:10380000829E819E020EE66EE66AA1EC28F0E552E9
:10381000E5521AD0400E8A6E828A829C829E819ED8
:10382000020EE66EE66AA1EC28F0E552E552400E83
:103830008A6E829A828C829E819E020EE66EE66A73
:10384000A1EC28F0E552E5520B0EDB5004E00B0E24
:10385000DB50030835E1D950100F006EDACF01F0CC
:103860000E0EDB500F010024E96E000E0120EA6EFF
:10387000EF508A6E829A829C828E819E020EE66E44
:10388000E66AA1EC28F0E552E552D950100F006E1F
:10389000DACF01F00F0EDB500F010024E96E000EAD
:1038A0000120EA6EEF508A6E829A829C829E818EFF
:1038B000020EE66EE66AA1EC28F0E552E5521AD057
:1038C000400E8A6E829A829C828E819E020EE66EE5
:1038D000E66AA1EC28F0E552E552400E8A6E829A23
:1038E000829C829E818E020EE66EE66AA1EC28F032
:1038F000E552E5528A6A828A828C828E818E56D601
:103900001C0EE15C02E2E16AE552E16EE552E7CFAE
:10391000D9FF1200D9CFE6FFE1CFD9FFE652DF6A27
:103920003C0EDF5C08E2829282840000000000000E
:103930008294DF2AF5D7E552E552E7CFD9FF12008E
:103940002B9E0CD02B9E23AE09D0206C211E221E54
:10395000231EE86A2122222223222B8E23C01DF05F
:1039600022C01CF021C02FF020C02EF09E0E1E6E33
:103970001F6AC4EF1EF0297E2B6A00EC1FF018ECC2
:103980001FF02BB6A8EF1EF02BA20AD02BAA03D053
:103990002BBEA8EF1EF02BA4B4EF1EF0B1EF1EF06B
:1039A0002BAA05D02BACB4EF1EF0B1EF1EF02BA06C
:1039B0000AD02BA808D02BBE04D02BA402D0BDEF78
:1039C0001EF0C1EF1EF02E6A1F6A2950245C2D6E76
:1039D00010E321C02FF022C01CF023C01DF024C032
:1039E0002CF026C021F027C022F028C023F02B3A6B
:1039F00009D026C02FF027C01CF028C01DF029C018
:103A00002CF02D6C2B9E2BBC2B8E2CC01EF02BB0C3
:103A1000F0EF1EF01A0E2D60F0EF1EF01E6A246A01
:103A20002BA408D0216C221E231E241EE86A222209
:103A3000232224222BAC08D02F6C1C1E1D1E1E1E00
:103A4000E86A1C221D221E22206A2D5207E024341F
:103A500023322232213220322D2EF9D721502F2627
:103A600022501C2223501D2224501E2220C02EF042
:103A70002B9E1EAE0BD02E6C2F1E1C1E1D1E1E1E3E
:103A8000E86A2F221C221D221E222B8E1EA006D089
:103A9000D8801D321C322F322E322C2A2CC01EF020
:103AA000C4EF1EF02B6A00EC1FF018EC1FF02BB6D1
:103AB000A8EF1EF02BA205D02BBAA8EF1EF0AFEF97
:103AC0001EF02BBABBEF1EF02BA005D02BB8A8EF31
:103AD0001EF0BBEF1EF02BB8AFEF1EF01F6A7F0E7B
:103AE00024241E6EE86A1F2229501E5EE86A1F5AAF
:103AF0001A0E2C6E246A2E6A2F6A1C6A1D6A2650C2
:103B0000215E2750225A2850235A000E245A09E7D2
:103B1000265021262750222228502322000E24221C
:103B200001D02E8AD8902136223623362436D890DA
:103B30002E362F361C361D362C2EE1D72350221060
:103B40002110D8A42E8AC4EF1EF02B6A00EC1FF0BF
:103B500018EC1FF02BB6A8EF1EF02BA205D02BB847
:103B6000A8EF1EF0AFEF1EF02BAA05D02BB0A8EFE8
:103B70001EF0AFEF1EF02BB002D02BA802D0BBEF8F
:103B80001EF01F6A295024241E6EE86A1F227E0E32
:103B90001E5EE86A1F5A2E6A2F6A1C6A1D6A285028
:103BA0002302F4CF1DF0F3CF1CF027502302F35073
:103BB0002F26F4501C22000E1D2228502202F35002
:103BC0002F26F4501C22000E1D2226502302F350F3
:103BD0002E26F4502F22000E1C221D2227502202D6
:103BE000F3502E26F4502F22000E1C221D222850A6
:103BF0002102F3502E26F4502F22000E1C221D22EB
:103C000026502202F4502E26000E2F221C221D22A6
:103C100027502102F4502E26000E2F221C221D2296
:103C2000C4EF1EF02B6A00EC1FF02BB61CEF1EF049
:103C30002BA20ED02BB405D07F0E236EFF0E226E6A
:103C40001FD0800E236E226A1BD0236A226A18D0EE
:103C50002BB0FBD78F0E2460EDD77E0E2464F5D7F2
:103C60008E0E245C05E0D89023322232242AF8D725
:103C70002BA406D0226C231EE86A232223AEE5D7AC
:103C8000120053EC1EF02BB6000C2BB0000C2BB422
:103C9000000C010C53EC1EF02BB6000C2BB0000CEA
:103CA0002BA4000C010C2B6A00EC1FF018EC1FF089
:103CB0002BB612002BAE08D02BA004D02BA802D01C
:103CC0002B8012002B9012002950245C0BE128500D
:103CD000235C08E12750225C05E12650215C02E1CB
:103CE0002B801200D8A002D02B8E10D0245029C0D7
:103CF00024F0296E235028C023F0286E225027C0BC
:103D000022F0276E215026C021F0266E2950245C17
:103D100010E0FF0F09E02B902BB403D02BAE2B84C7
:103D200012002BAE2B941200292AD8902832273269
:103D300026322650215E2750225A2850235A23BE6D
:103D4000EAD7D890213622362336242EF8D7C8D782
:103D50007F0E246EFF0E236E226E216E12007F0EE8
:103D60002BBEFF0E246E02D07F0E246E800E236EBB
:103D7000226A216AF3D72BAE04D0800E246E236A08
:103D8000F7D7246A236AF4D71D501C102F102E1069
:103D9000F8E01FBEF0D71DBE0CD01E501F10EBE088
:103DA000D8902E362F361C361D361E06D8A01F067C
:103DB000F2D71F50D4E11E28D2E02EAE11D07F0ED4
:103DC0002E1402E12FA00CD02F2AE86A1C221D22FB
:103DD00007E3D8801D321C322F321E2A1E28BFE076
:103DE0001E50C9E02FC021F01CC022F01D34236EEC
:103DF0001E30246E2332249E2BBE248EAEEF1EF086
:103E00002336243602E32B842B7E06E12B80246AA2
:103E1000236A226A216A1200242803E0D880233210
:103E20001200D890233202E12B8212002B8612005E
:103E30002836293602E32B8C2B7E06E12B88296A53
:103E4000286A276A266A1200292803E0D8802832C7
:0C3E50001200D8902832EAE12B8A120000
:043E5C00D9CFE6FFD5
:103E6000E1CFD9FFFE0EDBCFE6FF97EC23F0E55262
:103E7000D00EE66EFE0EDBCFE6FF04EC24F0E5523A
:103E8000E5520E0EE66EFE0EDBCFE6FF04EC24F0EC
:103E9000E552E552100EE66EFE0EDBCFE6FF04ECB7
:103EA00024F0E552E552FE0EDBCFE6FF20EC24F0D5
:103EB000E552000E00D0E552E7CFD9FF1200D9CF6E
:103EC000E6FFE1CFD9FFE652D9CFE6FFDACFE6FF32
:103ED000E66A680EE66EFE0EDBCFE6FF63EC24F0CA
:103EE000006E050EE15E0050FC0EDBCFE9FFFD0E1B
:103EF000DBCFEAFF020EE926000EEA22E9CF00F04E
:103F0000EACF01F000C0E6FF01C0E6FFDFCFE6FF29
:103F100077EC10F0E552E552E552D9CFE6FFDACF63
:103F2000E6FF010EE66E680EE66EFE0EDBCFE6FFE4
:103F300063EC24F0006E050EE15E0050FC0EDBCF5A
:103F4000E9FFFD0EDBCFEAFFEE52E9CF00F0EACF4A
:103F500001F000C0E6FF01C0E6FFDFCFE6FF77EC2F
:103F600010F0E552E552E552D9CFE6FFDACFE6FF91
:103F7000020EE66E680EE66EFE0EDBCFE6FF63EC29
:103F800024F0006E050EE15E0050FC0EDBCFE9FF71
:103F9000FD0EDBCFEAFFE9CF00F0EACF01F000C071
:103FA000E6FF01C0E6FFDFCFE6FF77EC10F0E55259
:103FB000E552E552D9CFE6FFDACFE6FF030EE66E13
:103FC000680EE66EFE0EDBCFE6FF63EC24F0006EBB
:103FD000050EE15E0050FC0EDBCFE9FFFD0EDBCFEE
:103FE000EAFF030EE926000EEA22E9CF00F0EACF4D
:103FF00001F000C0E6FF01C0E6FFDFCFE6FF77EC8F
:1040000010F0E552E552E552D9CFE6FFDACFE6FFF0
:10401000040EE66E680EE66EFE0EDBCFE6FF63EC86
:1040200024F0006E050EE15E0050FC0EDBCFE9FFD0
:10403000FD0EDBCFEAFF040EE926000EEA22E9CFEF
:1040400000F0EACF01F000C0E6FF01C0E6FFDFCFDD
:10405000E6FF77EC10F0E552E552E552D9CFE6FFE6
:10406000DACFE6FF050EE66E680EE66EFE0EDBCFDB
:10407000E6FF63EC24F0006E050EE15E0050FC0EDE
:10408000DBCFE9FFFD0EDBCFEAFF050EE926000ED0
:10409000EA22E9CF00F0EACF01F000C0E6FF01C05C
:1040A000E6FFDFCFE6FF77EC10F0E552E552E55290
:1040B000D9CFE6FFDACFE6FF060EE66E680EE66EB3
:1040C000FE0EDBCFE6FF63EC24F0006E050EE15E32
:1040D0000050FC0EDBCFE9FFFD0EDBCFEAFF060E42
:1040E000E926000EEA22E9CF00F0EACF01F000C095
:1040F000E6FF01C0E6FFDFCFE6FF77EC10F0E55208
:10410000E552E552000E00D0E552E552E7CFD9FF67
:104110001200D9CFE6FFE1CFD9FFE652FE0EDBCF8A
:10412000E6FF97EC23F0E552D00EE66EFE0EDBCFF5
:10413000E6FF04EC24F0E552E552E66AFE0EDBCF22
:10414000E6FF04EC24F0E552E552D9CFE6FFDACFE2
:10415000E6FFF90EDBCFE6FF4EEC10F0E552E5523C
:10416000E552DFCFE6FFFE0EDBCFE6FF04EC24F0E6
:10417000E552E552D9CFE6FFDACFE6FFF80EDBCF06
:10418000E6FF4EEC10F0E552E552E552DFCFE6FFD8
:10419000FE0EDBCFE6FF04EC24F0E552E552D9CF6A
:1041A000E6FFDACFE6FFF70EDBCFE6FF4EEC10F0CE
:1041B000E552E552E552DFCFE6FFFE0EDBCFE6FF2C
:1041C00004EC24F0E552E552D9CFE6FFDACFE6FF62
:1041D000FA0EDBCFE6FF4EEC10F0E552E552E55269
:1041E000DFCFE6FFFE0EDBCFE6FF04EC24F0E55266
:1041F000E552D9CFE6FFDACFE6FFFB0EDBCFE6FFD5
:104200004EEC10F0E552E552E552DFCFE6FFFE0E30
:10421000DBCFE6FF04EC24F0E552E552D9CFE6FF10
:10422000DACFE6FFFC0EDBCFE6FF4EEC10F0E552F6
:10423000E552E552DFCFE6FFFE0EDBCFE6FF04ECF2
:1042400024F0E552E552D9CFE6FFDACFE6FFFD0EC6
:10425000DBCFE6FF4EEC10F0E552E552E552DFCF42
:10426000E6FFFE0EDBCFE6FF04EC24F0E552E5525C
:10427000FE0EDBCFE6FF20EC24F0E552000E00D06E
:0A428000E552E552E7CFD9FF120026
:06428A00D9CFE6FFE1CFF1
:10429000D9FF030EE126C50EE66E520EE66EA1ECC6
:1042A00014F0E552E552DF6A100EDF5C1FE2200ECB
:1042B000E66E92EC14F0E5520A0EDF5C07E2300E77
:1042C000DF24E66E92EC14F0E55206D0370EDF24C0
:1042D000E66E92EC14F0E552C30EE66E520EE66EF8
:1042E000A1EC14F0E552E552DF2ADED70A0EE66EA5
:1042F00092EC14F0E552010EDB6A080EF36E010E2B
:10430000DBCFF4FFF350F45C01E384D0010EDB500B
:10431000300FE66E92EC14F0E552300EE66E92EC41
:1043200014F0E552C00EE66E520EE66EA1EC14F0EB
:10433000E552E552020EDB6A100EF36E020EDBCF81
:10434000F4FFF350F45C5EE2010EDB5008E1030E73
:10435000F36E020EDBCFF4FFF350F45C08E3010EC2
:10436000DB5007080DE1020EDB50080809E2BC0E25
:10437000E66E520EE66EA1EC14F0E552E5523FD027
:10438000FE0EDBCFE6FF97EC23F0E552020EDBCF0B
:10439000E6FF010EDB50100DF350E552E724E82450
:1043A000FE0BE66EFE0EDBCFE6FF04EC24F0E552DA
:1043B000E552FE0EDBCFE6FFC7EC23F0E552000925
:1043C00010E1E66A020EDBCFE6FF010EDB50100DB6
:1043D000F350E552E724E66E00EC15F0E552E552A5
:1043E00008D0B80EE66E520EE66EA1EC14F0E5525F
:1043F000E552FE0EDBCFE6FF20EC24F0E552020E84
:10440000DB2A9AD70A0EE66E92EC14F0E552010E02
:10441000DB2A73D7B50EE66E520EE66EA1EC14F0F1
:10442000E552E552000E006E030EE15C03E200D09F
:10443000E16AE552E16E0050E552E7CFD9FF120084
:10444000D9CFE6FFE1CFD9FF070EE126060EDB6AE2
:104450008F0EE66E520EE66EA1EC14F0E552E552B8
:10446000DE6ADD6ADECF00F0DDCF01F0100E005C09
:10447000000E015833E2C30EE66E520EE66EA1EC5A
:1044800014F0E552E552DECF00F0DDCF01F00A0E68
:10449000005C000E01580BE2DECF00F0DDCF01F032
:1044A000300E0024E66E92EC14F0E5520AD0DECF16
:1044B00000F0DDCF01F0370E0024E66E92EC14F030
:1044C000E552C30EE66E520EE66EA1EC14F0E55214
:1044D000E552DF2A010E01E3DB2AC4D70A0EE66E9D
:1044E00092EC14F0E552020EDB6A030EDB6A020E58
:1044F000DBCF00F0030EDBCF01F0100E005C000EEE
:10450000015801E3ABD0020EDBCF00F0030EDBCF8E
:1045100001F00A0E005C000E01580DE2020EDBCF26
:1045200000F0030EDBCF01F0300E0024E66E92ECBB
:1045300014F0E5520CD0020EDBCF00F0030EDBCFFF
:1045400001F0370E0024E66E92EC14F0E5528B0E6B
:10455000E66E520EE66EA1EC14F0E552E552040E42
:10456000DB6A050EDB6A040EDBCF00F0050EDBCF45
:1045700001F0100E005C000E015865E2FE0EDBCF6C
:10458000E6FF97EC23F0E552FD0EDB50E824FE0B2E
:10459000E66EFE0EDBCFE6FF04EC24F0E552E552BA
:1045A000020EDBCF02F0030EDBCF03F0040ED89037
:1045B00002360336E806FBE1040EDB500224006EEF
:1045C000050EDB500320016E0050E66EFE0EDBCFC1
:1045D000E6FF04EC24F0E552E552FE0EDBCFE6FFE9
:1045E000A5EC23F0E552FD0EDB50E8240109E66E50
:1045F000FE0EDBCFE6FF04EC24F0E552E552D95085
:10460000060FE66E000EDA20E66EE66AFE0EDBCFDF
:10461000E6FFE0EC23F0E552E552E552E552FE0EEE
:10462000DBCFE6FF20EC24F0E552E66A060EDBCF96
:10463000E6FF00EC15F0E552E552040EDB2A050E0C
:1046400001E3DB2A90D70A0EE66E92EC14F0E552F5
:10465000020EDB2A030E01E3DB2A49D7000E006EAF
:10466000070EE15C03E200D0E16AE552E16E005022
:08467000E552E7CFD9FF12006B
:08467800D9CFE6FFE1CFD9FF25
:10468000040EE126046A2D0E056E310E066E010E33
:10469000076E04C020F005C021F006C022F007C05C
:1046A00023F0FA0EDBCF25F0FB0EDBCF26F0FC0E5D
:1046B000DBCF27F0FD0EDBCF28F075EC29F020C012
:1046C00000F021C001F022C002F023C003F0000678
:1046D000000E015A025A035A00C0DFFF010E01C04A
:1046E000DBFF020E02C0DBFF030E03C0DBFF94867C
:1046F0009488F00EC6140809C66EC68A000EDB50F8
:10470000C86EC78E0A0EE66EE66AA1EC28F0E55286
:10471000E552000E006E040EE15C03E200D0E16A97
:10472000E552E16E0050E552E7CFD9FF1200D9CF34
:10473000E6FFE1CFD9FFC580C5A003D0000E01D0B0
:10474000FBD7E552E7CFD9FF1200D9CFE6FFE1CF83
:10475000D9FFC582C5A203D0000E01D0FBD7E55218
:10476000E7CFD9FF1200D9CFE6FFE1CFD9FFFD0E89
:10477000DB50E8B0C58AE8A0C59AC588C5A803D0B3
:10478000000E01D0FBD7E552E7CFD9FF1200D9CFF9
:10479000E6FFE1CFD9FFE652C7B4FED7DF6A640E69
:1047A000DF5C06E2C5BC02D0010E05D0DF2AF7D7D8
:1047B0009E96010E00D0E552E552E7CFD9FF1200D8
:1047C000D9CFE6FFE1CFD9FFE652DF6AC5869EA6C4
:1047D000FED79E96FD0EDBCFE6FFFE0EDBCFE6FF9B
:1047E000C2DFE552E552FB0EDBCFE9FFFC0EDBCF6B
:1047F000EAFFC9CFEFFF000E02D0010E00D0E55254
:10480000E552E7CFD9FF1200D9CFE6FFE1CFD9FFBC
:10481000E652DF6AFD0EDB50C96E9E96FE0EDBCFC0
:10482000E6FFB5DFE552000904E0000E04D0010EFA
:1048300002D0010E00D0E552E552E7CFD9FF1200B9
:10484000D9CFE6FFE1CFD9FFC584C5A403D0000EC0
:1048500001D0FBD7E552E7CFD9FF1200D9CFE6FF51
:10486000E1CFD9FF020EE126DE6ADD6AC750040BF4
:1048700001E0010E006E1F0EC514001016E0DF2AC5
:10488000010E01E3DB2AE66EE66A6EEC28F0E552E3
:10489000E552DECF00F0DDCF01F0F40E005C010E3A
:1048A000015802E3010E03D0E1D7000E00D0006EE4
:1048B000020EE15C02E2E16AE552E16E0050E5526F
:1048C000E7CFD9FF1200D9CFE6FFE1CFD9FFFE0E27
:1048D000DBCFE6FF2CDFE552FD0EDB50E824FE0BBC
:1048E000E66EFE0EDBCFE6FF8FDFE552E552FC0EF3
:1048F000DBCFE6FFFE0EDBCFE6FF86DFE552E552BB
:10490000FE0EDBCFE6FF21DFE552FD0EDB50E82493
:104910000109E66EFE0EDBCFE6FF76DFE552E552DB
:10492000FA0EDBCFE6FFFB0EDBCFE6FF010EE66EF5
:10493000FE0EDBCFE6FF44DFE552E552E552E552DD
:10494000FE0EDBCFE6FF7CDFE552000E00D0E55225
:10495000E7CFD9FF1200D9CFE6FFE1CFD9FFFE0E96
:10496000DBCFE6FFE4DEE552FD0EDB50E824FE0B74
:10497000E66EFE0EDBCFE6FF47DFE552E552FC0EAA
:10498000DBCFE6FFFE0EDBCFE6FF3EDFE552E55272
:10499000FB0EDBCFE6FFFE0EDBCFE6FF35DFE55299
:1049A000E552FE0EDBCFE6FF4BDFE552000E00D0F6
:0849B000E552E7CFD9FF120028
:0849B800D9CFE6FFDACFE6FFDC
:1049C000E1CFD9FFE2CFDAFF130EE12402E3E16881
:1049D000E652E16E0C0EDB6AD950FA0FE96EFF0E5B
:1049E000DA20EA6E080EEECFDBFF090EEECFDBFF1A
:1049F0000A0EEECFDBFF0B0EEECFDBFF1FD9D95037
:104A0000080F17D9EECFE6FFEECFE6FFEECFE6FFB9
:104A1000EFCFE6FFCBEC26F0006E060EE15C02E283
:104A2000E16AE552E16E0050DF6E020EDF5C01E0EC
:104A3000BCD0050EDBCF02F0060EDBCF03F0F80E84
:104A4000DB50025C006EF90EDB500358016E7F0EE6
:104A5000005E000E015A0D0E00C0DBFF0E0E01C0FD
:104A6000DBFF0D0E0E0EDBCF01F00001800E0114F6
:104A70000AE0010EF36E0C0EF3CFDBFF070EDB50E6
:104A800001E098D09DD00D0EDBCF00F00E0EDBCFF5
:104A900001F0D890015004E6170E005C000E01589A
:104AA00001E39ED0046805687F0E066E076A0D0E4E
:104AB000DB501F0B04C000F005C001F006C002F07F
:104AC00007C003F007E0D89003320232013200320F
:104AD000E806F9E10F0E00C0DBFF100E01C0DBFF9E
:104AE000110E02C0DBFF120E03C0DBFF0F0EDBCF87
:104AF00000F0100EDBCF01F0110EDBCF02F0120E32
:104B0000DBCF03F0D950010F94D8EE500016EE50D1
:104B10000116EE500216EE5003160050011002105E
:104B2000031002E1000E01D0010EE76E0C0EE7CF7C
:104B3000DBFFDB5055E0046A056A800E066E076AEB
:104B4000010E086E096A0A6A0B6AD9500F0F71D8F4
:104B5000EE500826EE500922EE500A22EE500B22AB
:104B60000850045C006E09500558016E0A50065842
:104B7000026E0B500758036ED950010F5AD80050DF
:104B8000EE160150EE160250EE160350EE16D950F6
:104B9000080FE66E000EDA20E66E50D859EC27F0CA
:104BA000E552E552E552E5521BD0DF0419E1070E4C
:104BB000DB5006E0006A016A026A800E036E04D0D0
:104BC000006A016A026A036A080E00C0DBFF090E70
:104BD00001C0DBFF0A0E02C0DBFF0B0E03C0DBFFD0
:104BE000F60EDBCFE9FFF70EDBCFEAFF0C0EDBCFD3
:104BF000EFFF080EDBCF00F0090EDBCF01F00A0E4D
:104C0000DBCF02F00B0EDBCF03F000C020F001C0C1
:104C100021F002C022F003C023F0130EE15C02E297
:104C2000E16AE552E16EE552E5CFDAFFE7CFD9FF61
:104C30001200E96E000EDA20EA6E1200D950010F60
:0A4C4000E66E000EDA20E66E1200A8
:064C4A00D9CFE6FFE1CF27
:104C5000D9FFFE0EDBCFE6FF97EC23F0E552900E76
:104C6000E66EFE0EDBCFE6FF04EC24F0E552E552E3
:104C7000AC0EE66EFE0EDBCFE6FF04EC24F0E55250
:104C8000E552E66AFE0EDBCFE6FF04EC24F0E552C7
:104C9000E552FE0EDBCFE6FF20EC24F0E552FE0EDF
:104CA000DBCFE6FF97EC23F0E552900EE66EFE0EAA
:104CB000DBCFE6FF04EC24F0E552E552EE0EE66EA3
:104CC000FE0EDBCFE6FF04EC24F0E552E552FE0ECB
:104CD000DBCFE6FF20EC24F0E552FE0EDBCFE6FF53
:104CE00097EC23F0E552900EE66EFE0EDBCFE6FF6A
:104CF00004EC24F0E552E552AA0EE66EFE0EDBCF80
:104D0000E6FF04EC24F0E552E552FE0EDBCFE6FFB1
:104D1000A5EC23F0E552910EE66EFE0EDBCFE6FF2A
:104D200004EC24F0E552E552FC0EDBCFE6FFFD0E6D
:104D3000DBCFE6FFE66AFE0EDBCFE6FFE0EC23F01A
:104D4000E552E552E552E552010EE76EFC0EDBCF6F
:104D500000F0FD0EDBCF01F0E7500026000E01222F
:104D600000C0E6FF01C0E6FF010EE66EFE0EDBCFDF
:104D7000E6FFE0EC23F0E552E552E552E552FE0E87
:104D8000DBCFE6FF20EC24F0E552000E00D0E55228
:064D9000E7CFD9FF12007D
:0A4D9600D9CFE6FFDACFE6FFE1CF48
:104DA000D9FFE2CFDAFFE652006801687F0E026E9B
:104DB000036AD950FA0FE96EFF0EDA20EA6EEE5060
:104DC0000016EE500116EE500216EE5003166AD889
:104DD00000C0EEFF01C0EEFF02C0EEFF03C0EEFF19
:104DE000FD0EDB50800B02E0010E01D0000EE66EDE
:104DF00059D8060EE926000EEA22E552E750EF6E7A
:104E0000FC0EDBCF00F0FD0EDBCF01F0D8900036BA
:104E10000136FC0E00C0DBFFFD0E01C0DBFFDB50E6
:104E2000E66E40D8040EE926000EEA22E552E7506D
:104E3000EE6EED6AFD0EDB50006E016AFF0E00188B
:104E400018E1015016E12ED8EECF00F0EECF01F0C0
:104E5000EECF02F0EFCF03F000500110021003106C
:104E600006E0210E0001976F986B800E0BD0040EA8
:104E700009D0FD0EDB5008E115D8EE6AEE6AEE6A45
:104E8000EE6A010EDF6E06D0020EDF6E0BD8EE5218
:104E9000EE52EE8EDF50E552E552E5CFDAFFE7CF76
:104EA000D9FF1200F80EDBCFE9FFF90EDBCFEAFFE6
:024EB0001200EE
:0E4EB200D9CFE6FFDACFE6FFE1CFD9FFE2CF9E
:104EC000DAFF5BD8013411E20050FE08000E0154F5
:104ED0000CE276D805E06CD8800EEE6EEE6847D016
:104EE00067D8800EEE6E7F0E0ED047D8D890015056
:104EF00004E6010E005C000E01580BE261D805E0EB
:104F000057D8EE6A800EEE6E32D052D8EE6AEE6A54
:104F10002ED047D8EECF00F0EECF01F0EECF02F06A
:104F2000EFCF03F032D800C0EEFF01C0EEFF02C0A9
:104F3000EEFF03C0EEFF21D80050010B05E025D89D
:104F4000020E3AD8EF8E04D020D8020E35D8EF9E4C
:104F500014D8D8900132003218D8030E2DD800C0D2
:104F6000EFFF1AD804E011D8030E26D8EF8EE552D1
:104F7000E5CFDAFFE7CFD9FF120013D8040E1CD813
:104F8000EECF00F0EFCF01F01200FA0EDBCFE9FF19
:104F9000FB0EDBCFEAFF120004D8060E0DD8EF504F
:104FA0001200FC0EDBCFE9FFFD0EDBCFEAFF1200A3
:104FB000ECDFEE6AEE6A1200E926000EEA22120029
:0C4FC000220E0001976F986BCCEF27F0D9
:044FCC00D9CFE6FF54
:104FD000DACFE6FFE1CFD9FFE2CFDAFF060EE12418
:104FE00002E3E168E652E16ED950050FE66E000E6D
:104FF000DA20E66E000EE66EE66AD950FA0FE96E28
:10500000FF0EDA20EA6EEECFE6FFEECFE6FFEECF40
:10501000E6FFEFCFE6FFDCEC24F0006E080EE15C6B
:1050200002E2E16AE552E16E0050010E20C0DBFFB2
:10503000020E21C0DBFF030E22C0DBFF040E23C0E3
:10504000DBFF050EDB502AE0040EDB50800B26E16F
:10505000006A016A800E026E3F0E036ED950010F86
:10506000E96E000EDA20EA6EEECF21F0EECF22F0EC
:10507000EECF23F0EFCF24F000C026F001C027F0E0
:1050800002C028F003C029F0BCEC1CF024C0EDFFE6
:1050900023C0EDFF22C0EDFF21C0EFFF010EDBCFEB
:1050A00000F0020EDBCF01F0030EDBCF02F0040EA6
:1050B000DBCF03F000C020F001C021F002C022F0DD
:1050C00003C023F0060EE15C02E2E16AE552E16E04
:0C50D000E552E5CFDAFFE7CFD9FF120070
:0450DC00D9CFE6FF43
:1050E000E1CFD9FF040EE126FD0EDBCFDEFFDBCFE3
:1050F000DDFFD9CFE9FFDACFEAFFEE50ED1017E080
:10510000020EDB6A030EDB6AD950020FE96EDACFBA
:10511000EAFFEE50ED1006E0020EDB06030E01E2A0
:10512000DB06F2D7DF06010E01E2DB06E2D7040E52
:10513000E15C02E2E16AE552E16EE552E7CFD9FFB8
:105140001200D9CFE6FFE1CFD9FF040EE126FD0E14
:10515000DBCFDEFFDBCFDDFFD9CFE9FFDACFEAFF20
:10516000EE50ED101DE04C0EF36E020EF3CFDBFFA0
:10517000010EF36E030EF3CFDBFFD950020FE96E81
:10518000DACFEAFFEE50ED1006E0020EDB06030E6A
:1051900001E2DB06F2D7DF06010E01E2DB06DCD717
:1051A000040EE15C02E2E16AE552E16EE552E7CF0E
:0451B000D9FF120011
:0C51B4000E0EF66E000EF76E000EF86E88
:1051C00000010900F550856F0900F550866F03E175
:1051D000856701D03DD00900F550806F0900F5507A
:1051E000816F0900F550826F09000900F550E96EE2
:1051F0000900F550EA6E090009000900F550836FB7
:105200000900F550846F09000900F6CF87F0F7CF49
:1052100088F0F8CF89F080C0F6FF81C0F7FF82C028
:10522000F8FF0001835302E1845307E00900F550C1
:10523000EE6E8307F8E28407F9D787C0F6FF88C0CF
:10524000F7FF89C0F8FF00018507000E865BBFD716
:0252500012004A
:0E52520053756E646179005361747572646106
:10526000790046726964617900546875727364618B
:1052700079005765646E6573646179005475657370
:10528000646179004D6F6E64617900303A20000AE4
:105290000A2D2D2D2D2D2D2044756D70206F66202B
:1052A0004932432043686970202D2D2D2D2D2D0A64
:1052B00020202020000A0A002D2D20002020200080
:1052C0003A200020000A0A2D2D2D2D2D2D2053636C
:1052D000616E206F662049324320427573202D2D68
:0A52E0002D2D2D2D0A202020200086
:0652EA001F6A1E6A1D6A26
:1052F0001C6A200EE76ED8902036213622362336DF
:105300001C361D361E361F3625501C5C26501D5877
:1053100027501E5828501F5809E325501C5E265060
:105320001D5A27501E5A28501F5A202AE72EE4D70C
:02533000120069
:0E533200000EF36E00EE00F0060E01D8120021
:10534000EA6002D0EE6AFCD7F350E9601200EE6A20
:02535000FCD788
:0E53520015EE00F025EE00F0F86A2B9CDAEC68
:0E53600028F003EC00F060EC1AF0FBD712000E
:02536E001F6AB4
:10537000080EE76ED89023361F3628501F5C02E3D4
:0A5380001F6E232AE72EF7D7120054
:06538A00120012001200E7
:10539000120012001200120012001200120012007D
:0253A0001200F9
:0353A20000010007
:0353A50000000005
:020000040030CA
:0100010022DC
:010003000EEE
:010006008178
:00000001FF
