:020000040000FA
:060000001BEF01F01200ED
:06002A0001005402000079
:08003000800000000204000042
:08003800829E829C936A946A87
:100040008294828404018F6B906B8E6B8E510108B9
:100050003EE3829A8E0503E18298828602D08288EE
:1000600082963F0EE66E37D8E552B80EE66E33D86C
:10007000E552C00EE66E2FD8E55204018C6B8C5110
:10008000070823E3829A400EE66E25D8E552B80EA3
:1000900004018C25E66E1FD8E552828A04018D6B1F
:1000A0008D513F0810E3800E8F25E96E000E9021E0
:1000B000EA6EEF50E66E0FD8E55204018F2B000E6A
:1000C00090238D2BEDD78C2BDAD78E2BBFD7829830
:1000D0008296FFD71200D9CFE6FFE1CFD9FFFE0EFF
:1000E000DB50816E828E00000000000000000000E6
:1000F000829E010EE66EE66A06D8E552E552E552AA
:10010000E7CFD9FF1200D9CFE6FFE1CFD9FF040E28
:10011000E126FD0EDBCFDEFFDBCFDDFFD9CFE9FF30
:10012000DACFEAFFEE50ED101DE04C0EF36E020E3A
:10013000F3CFDBFF010EF36E030EF3CFDBFFD950DD
:10014000020FE96EDACFEAFFEE50ED1006E0020E84
:10015000DB06030E01E2DB06F2D7DF06010E01E249
:10016000DB06DCD7040EE15C02E2E16AE552E16EF7
:08017000E552E7CFD9FF1200B0
:080178002A0EF66E000EF76E70
:10018000000EF86E04010900F550876F0900F55064
:10019000886F03E1876701D03DD00900F550826F79
:1001A0000900F550836F0900F550846F09000900BC
:1001B000F550E96E0900F550EA6E090009000900E2
:1001C000F550856F0900F550866F09000900F6CFDC
:1001D00089F4F7CF8AF4F8CF8BF482C4F6FF83C496
:1001E000F7FF84C4F8FF0401855302E1865307E05A
:1001F0000900F550EE6E8507F8E28607F9D789C445
:10020000F6FF8AC4F7FF8BC4F8FF04018707000ECE
:06021000885BBFD712005D
:0A021600000EF36E00EE00F0060E7D
:1002200001D81200EA6002D0EE6AFCD7F350E96010
:060230001200EE6AFCD78B
:0A02360015EE00F025EE00F0F86A66
:10024000019CBCEC00F029EC01F01CEC00F0FBD7A9
:0202500012009A
:02025200120098
:0C0254000000000000000000000000009E
:10026000000000000000000000000000000000008E
:10027000000000000000000000000000000000007E
:10028000000000000000000000000000000000006E
:10029000000000000000000000000000000000005E
:1002A000000000000000000000000000000000004E
:1002B0000000008060180601010618608000000040
:1002C000000000C0008040408000000000000000EE
:1002D00080404040000000000000000000000000DE
:1002E000000000000000000000000000000000000E
:1002F000E01806030202020202020202030618E0EC
:10030000000000FF010000000001FE0000001E21AF
:10031000408088880000000000000000000000000D
:1003200000000000000000000000000000000000CD
:1003300000000000000000000000000000000000BD
:1003400000000000000000000000000000000000AD
:10035000000000000000000000000000000000009D
:10036000000000000000000000FF8080808000008E
:10037000003844828282000000FE828244380000FD
:10038000000000003844829272000000FE82824425
:100390003800000000000000000000000000000025
:1003A000000000000000000000000000000000004D
:1003B000000000000000000000000000000000003D
:1003C000000000000000000000000000000000002D
:1003D000000000000000000000000000000000001D
:1003E000000000000000000000000000000000000D
:1003F00000000000000000000000000000000000FD
:1004000000000000000000000000000000000000EC
:1004100000000000000000000000000000000000DC
:1004200000000000000000000000000000000000CC
:1004300000000000000000000000000000000000BC
:1004400000000000000000000000000000000000AC
:10045000000000000000000000000000000000009C
:10046000000000000000000000000000000000008C
:10047000000000000000000000000000000000007C
:10048000000000000000000000000000000000006C
:10049000000000004000000000000080404040409C
:1004A00080000000C00000000000000004CE040036
:1004B00000804040404040408000000000000000BC
:1004C000000000000000000000000000000000002C
:1004D0000000000048300000001E25448484848011
:1004E000400000003F4080808080000000FF00004E
:1004F0000040A0908884828140000000000000003D
:1005000000000000000000000000000000000000EB
:1005100000000000000000000000000000000000DB
:1005200000000000000000000000000000000000CB
:1005300000000000000000000000000000000000BB
:1005400000000000000000000000000000000000AB
:1005500000000000FE0C100CFE000000000010085F
:100560000402FE000044A2928A8400006C929292DF
:100570006C000060989492620000101814F2100051
:1005800000FC121212FC000000000000000000003D
:10059000000000000000000000000000000000005B
:1005A000000000000000000000000000000000004B
:1005B000000000000000000000000000000000003B
:1005C000000000000000000000000000000000002B
:1005D000000000000000000000000000000000001B
:1005E000000000000000000000000000000000000B
:1005F00000000000000000000000000000000000FB
:1006000000000000000000000000000000000000EA
:1006100000000000000000000000000000000000DA
:1006200000000000000000000000000000000000CA
:1006300000000000000000000000000000000000BA
:1006400000000000000000000000000000000000AA
:06065000000000000000A4
:020000040030CA
:0100010021DD
:010003000EEE
:010006008178
:00000001FF
