:0600000000F084EF00F0A7
:10000800FFFF5182FACF1DF0FBCF1EF0E9CF1FF0A2
:10001800EACF20F0E1CF21F0E2CF22F0D9CF23F0D0
:10002800DACF24F0F3CF25F0F4CF26F0F6CF27F07F
:10003800F7CF28F0F8CF29F0F5CF2AF051C02BF0F0
:1000480052C02CF053C02DF054C02EF0CA949E928A
:10005800CA84484A492A110E48184910D8A428D0F9
:100068004C2A89B002D0898002D0FFFF8990FFFF17
:1000780020EE4AF000EE14F0060EDBCFEBFFE806A8
:10008800FCE2010E1B6E010E1C6EF0EC0AF04A0E2B
:10009800016E000E026E97EC09F0000E496E000E1C
:1000A800486E7B0E056E000E066E000E5DEC0AF0C3
:1000B800FFFF2EC054F02DC053F02CC052F02BC0BF
:1000C80051F02AC0F5FF29C0F8FF28C0F7FF27C064
:1000D800F6FF26C0F4FF25C0F3FF24C0DAFF23C0D3
:1000E800D9FF22C0E2FF21C0E1FF20C0EAFF1FC004
:1000F800E9FF1EC0FBFF1DC0FAFF51921100FFFF70
:04010800B1EF0BF058
:10060000005765646E657364617900536174757237
:10061000646179005468757273646179005475651A
:100620007364617900467269646179004D6F6E642C
:1006300061790053756E6461790020002F003A00E3
:0106400000B9
:10064200FFFFA8C0ACF00001AD6BAE6BA735AC37B5
:1006520001E3AD81AC51B16FABC0ACF0AD6BAE6B31
:10066200AA35AC3701E3AD81AC51B06FB151D8B40A
:100672000BD0B051B15DD8B00FD0B1510008B02548
:10068200AC6F180EAC6508D0FFFFA9C0A6F0AAC0D7
:10069200A7F0ABC0A8F0BAD0FFFFB051D8B40BD0CE
:1006A200B151B05DD8B00FD0B0510008B125AC6FD8
:1006B200180EAC6508D0FFFFA6C0A6F0A7C0A7F031
:1006C200A8C0A8F0A3D0FFFF060EAF6FA8BFAF8FE0
:1006D200ABBFAF8DA78FFF0EA617FF0EA717000E99
:1006E200A817AA8FFF0EA917FF0EAA17000EAB17A5
:1006F200B051B15DD8B01ED0FFFFD890A937AA374C
:10070200AB37B007B151B019D8B40ED0AF07AFC0F4
:10071200ACF0070EAC17D8B407D0EED7FFFFD890D5
:10072200A833A733A633B12BFFFFB051B119D8B408
:1007320023D0F4D7FFFFB151B05DD8B01DD0FFFF79
:10074200D890A637A737A837B107B151B019D8B496
:100752000ED0AF07AFC0ACF0070EAC17D8B407D0BD
:10076200EED7FFFFD890AB33AA33A933B02BFFFFEC
:10077200B051B119D8A4F5D7FFFFAFAF0CD0FF0E1F
:10078200A61BFF0EA71BFF0EA81B010EA627000E1D
:10079200A723000EA823FFFFAFAD0CD0FF0EA91BAD
:1007A200FF0EAA1BFF0EAB1B010EA927000EAA23E8
:1007B200000EAB23FFFF000EAF6FA651A927A75172
:1007C200AA23A851AB23ABAF0ED0FF0EA91BFF0E7D
:1007D200AA1BFF0EAB1B010EA927000EAA23000EB7
:1007E200AB23010EAF6FFFFFA9C02FF0AAC030F0FC
:1007F200ABC031F0B1C032F0AFC033F0A3EC08F0BF
:100802002FC0A6F030C0A7F031C0A8F0FFFF120041
:10081200FFFFFFFF37A002D08A8A02D0FFFF8A9A29
:10082200FFFF35C080F036C081F0070E0001826FF5
:10083200FFFFD89081338033822FFAD78031D8A03E
:1008420002D08A8602D0FFFF8A96FFFF35C080F071
:1008520036C081F0060E0001826FFFFFD89081330F
:100862008033822FFAD78031D8A002D08A8402D076
:10087200FFFF8A94FFFF35C080F036C081F0050E7D
:100882000001826FFFFFD89081338033822FFAD725
:100892008031D8A002D08B8A02D0FFFF8B9AFFFF53
:1008A20035C080F036C081F0040E0001826FFFFF78
:1008B200D89081338033822FFAD78031D8A002D0EA
:1008C2008B8802D0FFFF8B98FFFF35C080F036C0C7
:1008D20081F00001D89081338033D8908133803306
:1008E200D890813380338031D8A002D08B8602D059
:1008F200FFFF8B96FFFF35C080F036C081F000010C
:10090200D89081338033D890813380338031D8A01E
:1009120002D08B8402D0FFFF8B94FFFFD890363039
:100922000001816F3530806F8031D8A002D08A8279
:1009320002D0FFFF8A92FFFF35A002D08A8002D048
:10094200FFFF8A90FFFF8A88000E306E010E2F6E25
:1009520054EC0BF08A98000E306E320E2F6E54EC6F
:100962000BF01200FFFFFFFF09A002D08A8A02D01B
:10097200FFFF8A9AFFFF07C00AF008C00BF0070EBC
:100982000C6EFFFFD8900B320A320C2EFAD70A30C7
:10099200D8A002D08A8602D0FFFF8A96FFFF07C046
:1009A2000AF008C00BF0060E0C6EFFFFD8900B3257
:1009B2000A320C2EFAD70A30D8A002D08A8402D08A
:1009C200FFFF8A94FFFF07C00AF008C00BF0050E74
:1009D2000C6EFFFFD8900B320A320C2EFAD70A3077
:1009E200D8A002D08B8A02D0FFFF8B9AFFFF07C0EC
:1009F2000AF008C00BF0040E0C6EFFFFD8900B3209
:100A02000A320C2EFAD70A30D8A002D08B8802D034
:100A1200FFFF8B98FFFF07C00AF008C00BF0D890C9
:100A22000B320A32D8900B320A32D8900B320A3289
:100A32000A30D8A002D08B8602D0FFFF8B96FFFF30
:100A420007C00AF008C00BF0D8900B320A32D890D7
:100A52000B320A320A30D8A002D08B8402D0FFFFB8
:100A62008B94FFFFD89008300B6E07300A6E0A3065
:100A7200D8A002D08A8202D0FFFF8A92FFFF07A08D
:100A820002D08A8002D0FFFF8A90FFFF8A88000E80
:100A9200026E010E016E92EC0BF08A98000E026E4D
:100AA200320E016E92EC0BF01200FFFFFFFFB2C09C
:100AB2002FF0B3C030F0B4C031F0B80E326E000E79
:100AC200336EDAEC09F00001B9AF21D0000E2F6EBF
:100AD200000E306E000E316EB2C032F0B3C033F091
:100AE200B4C034F005EC09F0D8A007D0000E000124
:100AF200B26F000EB36F000E07D0FFFF000E0001B1
:100B0200B26F800EB36F3F0EFFFFB46F54D0FFFF82
:100B1200B95104E1150EB85DD8A007D0B2C0B2F049
:100B2200B3C0B3F0B4C0B4F046D0FFFFB2C02FF0F0
:100B3200B3C030F0B4C031F0DBEC06F02FC086F069
:100B420030C087F031C088F032C089F01CEC0AF066
:100B520086C0B5F087C0B6F088C0B7F0B5C02FF038
:100B6200B6C030F0B7C031F0B2C032F0B3C033F02B
:100B7200B4C034F005EC09F0D8B016D0B5C0A6F078
:100B8200B6C0A7F0B7C0A8F0000E0001A96F800E92
:100B9200AA6F3F0EAB6F21EC03F0A6C0B2F0A7C064
:100BA200B3F0A8C0B4F007D0FFFFB5C0B2F0B6C032
:100BB200B3F0B7C0B4F0FFFF1200FFFFFFFF03C0A6
:100BC200D9FF04C0DAFF000EDF6E20EE01F0035001
:100BD200D9260450DA22000EDF6E20EE02F0035016
:100BE200D9260450DA22000EDF6E20EE03F0035005
:100BF200D9260450DA22000EDF6E20EE04F00350F4
:100C0200D9260450DA22000EDF6E0CD0FFFF20EE50
:100C120004F00350D9260450DA22DF2A100E015EB6
:100C2200270E025AFFFF100E015C270E0258D8A0B1
:100C32000DD0ECD7FFFF20EE03F00350D92604506D
:100C4200DA22DF2AE80E015E030E025AFFFFE80EE7
:100C5200015C030E0258D8A00DD0ECD7FFFF20EEA6
:100C620002F00350D9260450DA22DF2A640E015E14
:100C7200000E025AFFFF0250F2E1640E015CD8A09E
:100C82000DD0ECD7FFFF20EE01F00350D92604501F
:100C9200DA22DF2A0A0E015E000E025AFFFF02501C
:100CA200F2E10A0E015CD8B0EDD703C0D9FF04C04F
:100CB200DAFF01C0DFFF1200FFFFFFFF8AC08EF0E4
:100CC20000018F6B906B89358E3701E38F818E51D6
:100CD200916F9151D8B40DD08DC08EF08F6B906B07
:100CE2008C358E3701E38F818E51966F9651D8A441
:100CF20008D0FFFF000E886F000E896F000E8A6F0A
:100D020056D0FFFF96517B0F91278AC096F08D51E6
:100D1200961B800E9617898F8C8FFF0E8B17FF0EF6
:100D22008C17000E8D17000E926F000E936F000E3F
:100D3200946F070E956FFFFF88A106D08B51922703
:100D42008C5193238D519423FFFFD8908A3389339A
:100D52008833D8908B378C378D37952FECD7090E87
:100D6200956FFFFF88A106D08B5192278C51932358
:100D72008D519423FFFFD8908A3389338833D890DA
:100D8200943393339233952FECD792C02FF093C0C4
:100D920030F094C031F091C032F096C033F0A3EC41
:100DA20008F02FC088F030C089F031C08AF0FFFF10
:100DB2001200FFFFFFFF31C033F0346A356A30346E
:100DC200333601E3348033500001856F8551D8B446
:100DD2003AD0170E336E2FC034F030C035F031C028
:100DE20036F03328376E05D0FFFFD89036323532D1
:100DF2003432FFFF372EF8D734500001806F308E27
:100E0200FF0E2F16FF0E3016000E31162F50816F77
:100E12003050826F3150836F846B8E0E855F85AF49
:100E22000ED08551800A8F0FD8A00DD0FFFFD89029
:100E32008433833382338133853FF8D719D0FFFF60
:100E4200170E856511D0FFFF000E2F6E000E306E5B
:100E5200000E316E000E326E20D0FFFFD890813727
:100E62008237833784378507FFFF8551D8A4F5D7AA
:100E7200FFFF8051D8B408D0841F831F821F816D69
:100E8200000E822383238423FFFF81C02FF082C0C0
:100E920030F083C031F084C032F0FFFF1200FFFF58
:100EA200FFFF99C09DF000019E6B9F6B98359D37A7
:100EB20001E39E819D51A46FA451D8B40DD09CC072
:100EC2009DF09E6B9F6B9B359D3701E39E819D51EB
:100ED200A56FA551D8A408D0FFFF000E976F000E92
:100EE200986F000E996F4DD0FFFF000EA16F000E9C
:100EF200A26F000EA36FA551890FA45F99C0A5F040
:100F02009C51A51B800EA517988FFF0E9717FF0EF9
:100F12009817000E99179B8FFF0E9A17FF0E9B17BB
:100F2200000E9C17180EA06FFFFFD890A137A237B2
:100F3200A3379A51975D9B5198599C519959D8A0C2
:100F420007D09A51975F9B51985B9C51995BA18105
:100F5200FFFFD890973798379937A02FE5D7A1C0D0
:100F62002FF0A2C030F0A3C031F0A4C032F0A5C06F
:100F720033F0A3EC08F02FC097F030C098F031C0E6
:100F820099F0FFFF1200FFFFFFFF939A939893904F
:100F92009392949494969498949A93949396000E20
:100FA200306E3C0E2F6E73EC0BF0000E366E300E70
:100FB200356E000E376E0AEC04F0000E306E140E21
:100FC2002F6E73EC0BF0000E366E300E356E000E87
:100FD200376E0AEC04F0000E306E010E2F6E73ECC9
:100FE2000BF0000E366E300E356E000E376E0AECC8
:100FF20004F0000E366E380E356E000E376E0AECB7
:1010020004F0000E366E140E356E000E376E0AECCA
:1010120004F0000E366E0C0E356E000E376E0AECC2
:1010220004F0000E366E060E356E000E376E0AECB8
:1010320004F0000E306E010E2F6E73EC0BF0000EFA
:10104200366E010E356E000E376E0AEC04F0000E9D
:10105200366E800E356E000E376E0AEC04F0000E0E
:10106200306E010E2F6E73EC0BF01200FFFFFFFFCC
:101072000001C66F000E00018B6F800E8C6F410E57
:101082008D6FBAC080F0BBC081F0BCC082F0BDC021
:1010920083F098EC0AF080C088F081C089F082C0A9
:1010A2008AF05EEC06F088C09AF089C09BF08AC094
:1010B2009CF0970E0001976F180E986F4B0E996F68
:1010C20051EC07F097C0A6F098C0A7F099C0A8F01D
:1010D200000E0001A96F800EAA6FBF0EAB6F21EC4C
:1010E20003F0A6C0C3F0A7C0C4F0A8C0C5F0C3C037
:1010F200B2F0C4C0B3F0C5C0B4F057EC05F0B2C052
:10110200C0F0B3C0C1F0B4C0C2F0C0C02FF0C1C0C3
:1011120030F0C2C031F0DBEC06F02F50AF6E0001B0
:10112200C651D8A406D0AC84AC8AAB8EAB88948E60
:10113200949CFFFF000E306E1E0E2F6E73EC0BF0B0
:101142001200FFFFFFFF3250D8B405D02F503010ED
:101152003110D8A40ED0FFFF000E2F6E000E306E9D
:10116200000E316E4ED0FFFF322AD890313230322B
:101172002F32FFFF000E2F14346E000E3014356E26
:10118200FE0E3114366E345035103610D8B40DD0F0
:10119200EAD7FFFF322A010E2F26000E3022000E60
:1011A2003122D890313230322F32FFFF000E2F140D
:1011B200346E000E3014356EFF0E3114366E34501C
:1011C20035103610D8B407D0E4D7FFFF3206D890D6
:1011D2002F3630363136FFFF30BE03D0020E32607A
:1011E200F4D7FFFF32A0309ED89032323250311203
:1011F2003350D8A4318E2FC02FF030C030F031C020
:1012020031F0FFFF1200FFFFFFFF31AE16D02FC0FB
:1012120035F030C036F031C037F0351E361E371E7D
:10122200352A000E36223722000E35242F6E000E8C
:101232003620306E800E3720316EFFFF34AE16D06E
:1012420032C035F033C036F034C037F0351E361EAA
:10125200371E352A000E36223722000E3524326E12
:10126200000E3620336E800E3720346EFFFF000EE4
:101272002F1A000E301A800E311A000E321A000E8A
:10128200331A800E341A32502F5C33503058345097
:101292003158D8B002D0D89002D0FFFFD880FFFFDB
:1012A2001200FFFFFFFF0E6E30D0FFFF7F0E0D24F6
:1012B200076E086A000E0822000E096EB4EC04F0F4
:1012C20032D0FFFFBF0E0D24076E086A000E0822FF
:1012D200000E096EB4EC04F026D0FFFF930E0D242D
:1012E200076E086A000E0822000E096EB4EC04F0C4
:1012F2001AD0FFFFD30E0D24076E086A000E0822D3
:10130200000E096EB4EC04F00ED0FFFF0E50010A7D
:10131200D8B4CBD7030AD8B4D4D7010AD8B4DDD70E
:10132200070AD8B4E6D7FFFF1200FFFFFFFF20EE47
:1013320002F00150D9260250DA223A0EDF6436D08A
:1013420020EE02F00150D9260250DA22000EDF6EA2
:1013520020EE01F00150D9260250DA223A0EDF6463
:101362001CD020EE01F00150D9260250DA22000EE4
:10137200DF6E01C0D9FF02C0DAFF160EDF6407D0AC
:1013820001C0D9FF02C0DAFF000EDF6E0FD0FFFFEF
:1013920001C0D9FF02C0DAFF07D0FFFF20EE01F043
:1013A2000150D9260250DA22FFFFDF2AFFFF120086
:1013B200FFFFFFFF2F5030103110D8A409D032C0E8
:1013C200D9FF33C0DAFF000EDE6E000EDD6E30D0C4
:1013D200FFFF31507F0B346E356AD8903436353684
:1013E20032C0D9FF33C0DAFF34C0DEFF35C0DDFFC3
:1013F20030AE03D0346A342A02D0FFFF346AFFFFD2
:10140200345032C0D9FF33C0DAFFDE12000EDD12D3
:1014120032C0D9FF33C0DAFF820EDE26FF0EDD2294
:1014220031803182318431863188318A319C309EDB
:10143200FFFF1200FFFFFFFF000E00018F6F8E0EF5
:101442008E6F89AF12D0891F881F871F866D000E8D
:10145200872388238923010E8F6F07D0FFFFD8903F
:1014620089338833873386338E2BFFFF000E861530
:101472008A6F000E87158B6F000E88158C6FFF0E1A
:1014820089158D6F8A518B118C118D11D8A4E6D7D5
:1014920086C02FF087C030F088C031F08EC032F0A5
:1014A2008FC033F0A3EC08F02FC086F030C087F075
:1014B20031C088F01200FFFFFFFF0C6E05C001F083
:1014C200026A070E036E000E046EDFEC05F0630E77
:1014D200056406D00950300F016E0C50E7EC0BF09A
:1014E200FFFF090E056406D00850300F016E0C5044
:1014F200E7EC0BF0FFFF0750300F016E0C50E7ECEA
:101502000BF0200E016E0C50E7EC0BF006A206D099
:101512000A0E016E0C50E7EC0BF006D0FFFF200E16
:10152200016E0C50E7EC0BF0FFFF1200FFFFFFFF14
:101532008E0E376E08D0FFFF0001D89083338233BE
:1015420081338033372AFFFF000E00018015846F3C
:10155200000E8115856F000E8215866FFF0E8315B2
:10156200876F8451851186118711D8A4E4D780C072
:101572002FF081C030F082C031F037C032F0000E5F
:10158200336EA3EC08F02FC080F030C081F031C080
:1015920082F01200FFFFFFFF000E926E000E936EAC
:1015A200000E946E070EC16E000E306E2F68040E90
:1015B200CEEC0BF0000E0001BA6FC20EBB6F010E33
:1015C200BC6F000EBD6F000EBF6F000EBE6F000E2F
:1015D20038EC08F0C5EC07F0FFFF00F0FDD7FFFF85
:1015E2001CC00DF01B5053EC09F014C00DF00E6A34
:1015F20013EC0BF03E0E0D6E060E0E6E34EC0BF07D
:1016020015C00DF00E6A13EC0BF03E0E0D6E060EB9
:101612000E6E34EC0BF016C00DF00E6A13EC0BF0EC
:101622001200FFFFFFFF0DC001F00EC002F00F0E0F
:10163200036E000E046EDFEC05F0300E1024076E10
:10164200086A000E0822010E096EB4EC04F0300E96
:101652000F24076E086A000E0822010E096EB4EC10
:1016620004F01200FFFFFFFF10D0FFFF0DC0F6FFD6
:101672000EC0F7FF0800FFFFF550076E086A010E63
:10168200096EB4EC04F00D4A0E2AFFFF0DC0F6FFFE
:101692000EC0F7FF0800FFFFF5500009D8B4120092
:1016A200FFFFE3D7FFFFFFFF2FC031F030C032F062
:1016B200FFFF31503210D8B412D0000E346E000E3B
:1016C200336EFFFF33503410D8B404D03306D8A0A1
:1016D2003406F7D7FFFF3106D8A03206E9D7FFFF5D
:1016E2001200FFFFFFFF2FC031F030C032F0FFFFCA
:1016F20031503210D8B412D0000E346E7C0E336EDC
:10170200FFFF33503410D8B404D03306D8A03406C7
:10171200F7D7FFFF3106D8A03206E9D7FFFF120044
:10172200FFFFFFFF01C003F002C004F0FFFF035000
:101732000410D8B412D0000E066E000E056EFFFF24
:1017420005500610D8B404D00506D8A00606F7D76F
:10175200FFFF0306D8A00406E9D7FFFF1200FFFF30
:10176200E80EF66E170EF76E000EF86E00EE38F009
:1017720010EE0EF00900F5CFEEFFE550E150FAE170
:1017820000EE46F00B0EEE6AE806FDE15190519232
:10179200000EF86E0001CCEF0AF0FFFF326E9D8260
:1017A200F28EF28C2FC0CBFF030ECA1232C031F080
:1017B200FF0E3126314631463146CA503118870B69
:1017C2003118CA6ECA84D08E1200FFFFFFFF026E6C
:1017D2000250D8A405D0FFFFACA2FDD701C0ADFFD7
:1017E200FFFF1200FFFF2C061D0601061406250648
:0617F2000B063306FFFFA9
:020000040020DA
:08000000FFFFFFFFFFFFFFFF00
:020000040030CA
:0E000000FF220F0EFF0181FF0FC00FE00F4027
:00000001FF
